:020000040800F2
:1000000048770020E91F0108DDC20008DFC20008B0
:10001000E3C20008E7C20008EBC2000800000000CD
:10002000000000000000000000000000EFC2000817
:10003000F1C2000800000000EF6D0108F3C20008E3
:100040000320010803200108032001080320010800
:1000500003200108032001081DC800082DC800085E
:100060003DC800084DC800085DC80008032001080D
:1000700003200108032001080320010803200108D0
:10008000032001080320010871C90008D1C7000836
:1000900081C70008A9C70008032001086DC800082F
:1000A000032001080320010803200108F1C500080E
:1000B00023C600088FC6000815C7000803200108E2
:1000C0000320010803200108032001080320010880
:1000D0000320010847C5000867C5000881C500085E
:1000E000DDC80008032001080320010803200108DF
:1000F0000320010803200108032001080320010850
:10010000032001080320010803200108032001083F
:100110009DC50008B9C50008032001080320010897
:100120008BC90008032001080320010803200108EF
:10013000032001080320010803200108032001080F
:1001400003200108032001080320010803200108FF
:10015000032001080320010803200108D5C5000879
:1001600003200108032001080320010803200108DF
:1001700003200108032001080320010803200108CF
:10018000032001080320010851847A030A0009456D
:100190000102030406070809294DD951023FFD1E3B
:1001A0006186010817041ED3850108AB041AF30405
:1001B0002550EA0108121022B0222074024001A941
:1001C000241A54246A10242D040240029FD9241AB0
:1001D00058246A202435080240042928A9241A5CDE
:1001E000246A30241C0C02407911DA03241A60249A
:1001F0006A40243510024010294CA9241A64246A4C
:1002000050241C140240B911DA05241A68246A60CB
:10021000243518024040021B066A08012A28017989
:100220000E7901CBA010017A040159113A41010A5B
:1002300011010149203A42010A110201291E02203E
:1002400008E980E901091279297C590809127839ED
:100250007C690991126422405A02049112401A04E6
:0C026000042A081CAA011831D2FF00007B
:020000040800F2
:10C00000DFF80CD011F00EFE004800474BC20008CC
:10C010004877002010B50FF019F910BD10B50DF0DC
:10C0200061F90DF09FFA002404E0204603F0B0FB14
:10C03000601CC4B2062CF8DB10BD704710B506F0CA
:10C04000B3FC02200DF0C0F90CF017FD01F050F91F
:10C050000EF030FB02F03EFE01F08EF801F04FF8DA
:10C0600000F0F6FD00F0BEFD00F028FE0CF02BFD08
:10C07000FFF7E3FF04F08AFE05F008F8884800F0B7
:10C0800084FE01F0FEFC05F03EFD04F0F1FD0FF032
:10C09000C3F84FF6FF734FF47A72022100200DF0BF
:10C0A000E0F84FF6FF730A22022101200DF0D9F8C3
:10C0B00010BD10B50446A07830B1012807D0122871
:10C0C0000AD013280CD103E0FFF7B8FF08E007E01F
:10C0D000204605F029FC03E0204602F070FC00BF7A
:10C0E00000BF002010BD01460020704710B56D480C
:10C0F0000068401C6B49086000F0F8FD02F054FD38
:10C1000003F096FF10BD70B50546AC78052C10D233
:10C11000DFE804F0030B0A060E00FFF7E7FF11E06B
:10C12000002000F06AFD0DE00CE000F0BFFF09E028
:10C1300008E0052C05DB0D2C03DAA988204602F067
:10C140007DFB00BF00BF002070BD70B50446012517
:10C15000012000F064FD002053490870E078534945
:10C160000870534800684078092802D00D2808D18B
:10C1700003E00AF0EBFB054607E00AF052FC054637
:10C1800003E00AF0C5FC054600BF00BF1DB14748EB
:10C1900000780AF0D5FC002070BD10B50446207868
:10C1A000C01E092822D2DFE800F0051921210D1D4B
:10C1B000150911002046FFF7A6FF10BD2046FFF726
:10C1C00078FFFAE72046FFF78EFFF6E72046FFF7F5
:10C1D000BCFFF2E7204600F053FEEEE7204603F0F6
:10C1E00057FCEAE7204602F002FBE6E700BF00BF8B
:10C1F0000020E2E710B504462046FFF7CEFF10BD51
:10C2000010B500210A200CF0DFFE044624B1002006
:10C21000A07020460CF0F6FE10BD08B5AFF22B035F
:10C220004FF40062234903200CF030FF6A4622A13C
:10C2300003200BF02DFFFFF7E3FF05E0642300224E
:10C24000114610460CF0D4F8F8E700B587B00AF0B4
:10C2500099FD0DF0DBFC00214FF0006005F010FFB0
:10C260004FF4A06005F0D2FE0AF043FF0320002146
:10C270004FF40072134BCDE90132CDE903100620D3
:10C280000346114A009011480BF064FD06AA10A164
:10C2900006200BF0FDFE0BF033F8002007B000BDC8
:10C2A00040420F00000000206E0000206F000020C0
:10C2B00070E70108180300204D61696E2D54617309
:10C2C0006B00000018230020142B00201BC2000864
:10C2D000526F6F742D5461736B000000704700BF84
:10C2E000FEE700BFFEE700BFFEE700BFFEE77047C6
:10C2F000704710B50AF05AFD0446FE48007820B198
:10C30000FD480078401CFC49087020460AF052FDA8
:10C310000BF00EF80AF024FF10BD38B5044604EB0C
:10C320000411C1EBC411F54A02EB8101D1F890016F
:10C3300040F2255106F07CFD90B104EB0411C1EBF5
:10C34000C411EE4A02EB8101D1F8900106F0AEFC77
:10C35000C0B20090E0B20122694602F0DEFF00BFE9
:10C3600004EB0411C1EBC411E44A02EB8101D1F8E2
:10C37000900140F2277106F05BFD002820D004EB0D
:10C380000410C0EBC410DD4901EB8000B0F880015F
:10C3900004EB0411C1EBC411D84A02EB8101B1F8DE
:10C3A000821188420DD104EB0411C1EBC41102EBE0
:10C3B00081010022D1F8900140F2277106F0FDFCC6
:10C3C0005EE004EB0412C2EBC412CC4B03EB82021E
:10C3D00004EB0413C3EBC413C84D05EB8303B3F89C
:10C3E0008231D15C04EB0412C2EBC4122B4603EB86
:10C3F0008202D2F8900106F055FC04EB0411C1EB67
:10C40000C4112A4602EB8101B1F88211481CC11700
:10C4100000EB5161C911A0EBC11104EB0412C2EB96
:10C42000C4122B4603EB8202A2F8821104EB041023
:10C43000C0EBC410194601EB800090F89C01F8B9DC
:10C4400004EB0410C0EBC41001EB8000B0F88001D5
:10C4500004EB0411C1EBC4111A4602EB8101B1F8DF
:10C46000821188420CD104EB0411C1EBC41102EB20
:10C4700081010122D1F8900140F2266106F09DFC75
:10C4800004EB0410C0EBC4109C4901EB800090F851
:10C490009C0198BB04EB0411C1EBC411974A02EB59
:10C4A0008101D1F8900140F2266106F0C1FC28B369
:10C4B00004EB0410C0EBC410904901EB8000B0F80D
:10C4C000800104EB0411C1EBC4118C4A02EB810121
:10C4D000B1F88211884211D1E0B2002102F091FD41
:10C4E00004EB0411C1EBC411844A02EB8101002268
:10C4F000D1F8900140F2266106F05FFC38BD38B5F6
:10C50000044604EB0411C1EBC4117C4A02EB810127
:10C51000D1F8900140F2255106F08AFC90B104EB6D
:10C520000411C1EBC411754A02EB8101D1F89001ED
:10C5300006F0BCFBC0B20090E0B20122694602F0F6
:10C54000ECFE00BF38BD10B540F225516C4806F036
:10C550006FFC38B16A4806F0A9FBC4B2204600F06F
:10C56000FFFE00BF10BD10B5644890F859030128C4
:10C5700002D1FFF7C4FF02E00120FFF7CEFE10BD9D
:10C5800010B55E4890F81505012803D10220FFF789
:10C59000B6FF02E00220FFF7C0FE10BD10B55748FD
:10C5A00090F8D106012803D10320FFF7A8FF02E08D
:10C5B0000320FFF7B2FE10BD10B5504890F88D086B
:10C5C000012803D10420FFF79AFF02E00420FFF7BF
:10C5D000A4FE10BD10B5494890F8490A012803D1BE
:10C5E0000520FFF78CFF02E00520FFF796FE10BD47
:10C5F00010B50221434809F0E8FD88B10221414805
:10C6000009F0F4FD3F4809F07DFD84B204F57A712C
:10C610003C4809F010FB022103200EF079FD00BF19
:10C6200010BD10B50121880709F0CFFD38B10121F7
:10C63000880709F0DBFD012100200EF069FD0221D1
:10C64000480709F0C2FD38B10221480709F0CEFDC4
:10C65000022100200EF05CFD0421080709F0B5FD61
:10C6600038B10421080709F0C1FD042100200EF0B3
:10C670004FFD0821C80609F0A8FD38B10821C806F9
:10C6800009F0B4FD082100200EF042FD10BD10B5E8
:10C6900001211D4809F099FD38B101211A4809F01E
:10C6A000A5FD012108460EF033FD0221164809F0D0
:10C6B0008CFD38B10221144809F098FD02210120B7
:10C6C0000EF026FD0421104809F07FFD38B1042149
:10C6D0000D4809F08BFD042101200EF019FD082101
:10C6E000094809F072FDA0B10821074809F07EFD54
:10C6F00008210BE08D000020800000202039002060
:10C7000000100140000001400004004001200EF034
:10C71000FFFC10BD10B50121A94809F056FD38B144
:10C720000121A74809F062FD012102200EF0F0FC72
:10C730000221A34809F049FD38B10221A04809F0BF
:10C7400055FD022108460EF0E3FC04219C4809F047
:10C750003CFD38B104219A4809F048FD042102202B
:10C760000EF0D6FC0821964809F02FFD38B10821BB
:10C77000934809F03BFD082102200EF0C9FC10BDD2
:10C7800010B5142108200CF01FFC04465CB10020F9
:10C790006070A07004F1080200218A4807F04BF88D
:10C7A00020460CF02FFC10BD10B5142108200CF011
:10C7B0000BFC04465CB100206070A07004F108021C
:10C7C0000121804807F037F820460CF01BFC10BD13
:10C7D00010B501217B4807F0B1F9012805D10121ED
:10C7E000784807F046FA00F0CEFE0121754807F0C0
:10C7F000A5F9012805D10121724807F03AFA00F0A5
:10C80000C2FE01216F4807F099F9012805D10121E5
:10C810006C4807F02EFA00F0B6FE10BD10B50120EE
:10C820000AF033F800200CF0D7F810BD10B5022044
:10C830000AF02BF801200CF0CFF810BD10B5042041
:10C840000AF023F802200CF0C7F810BD10B508203C
:10C850000AF01BF803200CF0BFF810BD10B5102033
:10C860000AF013F804200CF0B7F810BD10B5202022
:10C870000AF000F828B120200AF007F805200CF093
:10C88000ABF8402009F0F6FF28B1402009F0FDFF89
:10C8900006200CF0A1F8802009F0ECFF28B18020E0
:10C8A00009F0F3FF07200CF097F84FF4807009F0BF
:10C8B000E1FF30B14FF4807009F0E7FF08200CF081
:10C8C0008BF84FF4007009F0D5FF30B14FF40070D1
:10C8D00009F0DBFF09200CF07FF810BD10B54FF414
:10C8E000806009F0C7FF30B14FF4806009F0CDFFE0
:10C8F0000A200CF071F84FF4006009F0BBFF30B172
:10C900004FF4006009F0C1FF0B200CF065F84FF404
:10C91000805009F0AFFF30B14FF4805009F0B5FFFF
:10C920000C200CF059F84FF4005009F0A3FF30B17F
:10C930004FF4005009F0A9FF0D200CF04DF84FF412
:10C94000804009F097FF30B14FF4804009F09DFF1F
:10C950000E200CF041F84FF4004009F08BFF30B18D
:10C960004FF4004009F091FF0F200CF035F810BD96
:10C9700010B540F20521144806F0BEFC20B140F28B
:10C980000521114806F0CBFC10BD10B50F49104829
:10C9900009F07DFE00210C4806F0E5FA00210C4864
:10C9A00009F0FCFD00F031FA002109200CF00CFB2D
:10C9B000044624B10020E07020460CF023FB10BD9B
:10C9C00000080040006400400020014020000010EA
:10C9D000106402400CB50020019000907648006879
:10C9E00040F480307449086000BF7348006800F468
:10C9F000003000900198401C0190009818B90198EF
:10CA0000B0F5A04FF1D16C48006800F4003010B1CF
:10CA10000120009001E0002000900098012846D1FC
:10CA200065484030006840F08050634940310860FC
:10CA30006248006840F44040604908605E48083041
:10CA400000685D49083108600846006840F400400D
:10CA500008600846006840F4A05008605848091F64
:10CA60000860081F006840F08070091F086000BF60
:10CA70005148006800F000700028F9D040F20570BD
:10CA8000504908604C480830006820F003004A49CB
:10CA9000083108600846006840F00200086000BFE6
:10CAA00045480830006800F00C000828F8D10CBD9B
:10CAB00010B54548006840F47000434908603E489E
:10CAC000006840F001003C49086000203A49083104
:10CAD0000860394800683D490840374908603C48CB
:10CAE000091D0860081F006820F48020091F0860E5
:10CAF000002031490C310860FFF76CFF4FF00060F7
:10CB000031498039086010BD70B500200022022331
:10CB100000240221284D08352D6805F00C0020B1B5
:10CB2000042806D0082834D107E02A4D2A4E356063
:10CB300033E02A4D284E35602FE01F4D2D1D2D6806
:10CB4000C5F380541C4D2D1D2D6805F03F0154B1D7
:10CB5000224DB5FBF1F5184E361D3668C6F3881622
:10CB600005FB06F209E01B4DB5FBF1F5124E361D33
:10CB70003668C6F3881605FB06F20F4D2D1D2D688D
:10CB8000C5F301456D1C6B00B2FBF3F5124E356029
:10CB900003E0104D104E356000BF00BF064D083554
:10CBA0002D68C5F303150E4E705D0B4D2D68C54005
:10CBB000094E356070BD0000003802400070004032
:10CBC00019544007003C024088ED00E0FFFFF6FEEC
:10CBD000103000240024F4000400002040787D017F
:10CBE0000800002010B540F201210E200BF067FD77
:10CBF00001210E200BF09EFD10BD10B5044624B19E
:10CC000000210E200BF096FD03E001210E200BF019
:10CC100091FD10BD10B50E200BF09BFD10BD10B5A1
:10CC200004461CB90020FFF7E8FF10BD0120FFF704
:10CC3000E4FF04EBC40000EB04104FF6FF7101EABF
:10CC400080020023012103200CF00BFB00BFECE766
:10CC500010B540F2012158200BF031FD0021582081
:10CC60000BF068FD10BD10B5044624B10121582019
:10CC70000BF060FD03E0002158200BF05BFD10BDC0
:10CC800010B558200BF065FD10BD10B504461CB959
:10CC90000020FFF7E8FF10BD0120FFF7E4FF04EBE1
:10CCA000C40000EB04104FF6FF7101EA800200237C
:10CCB000012102200CF0D5FA00BFECE710B540F2DC
:10CCC00001210D200BF0FBFC01210D200BF032FDAA
:10CCD00010BD10B5044624B101210D200BF02AFD32
:10CCE00003E000210D200BF025FD10BD10B50D2037
:10CCF0000BF02FFD10BD000008B538208DF80000A6
:10CD00000F208DF8010000208DF8020001208DF821
:10CD10000300684605F07FF912208DF800000F200F
:10CD20008DF8010002208DF8020001208DF803002B
:10CD3000684605F070F908BD2DE9F04105460E463C
:10CD400017466B4CD02060606A48E060206840F075
:10CD5000010020600121684806F005F9664806F0E8
:10CD60009EF90020BDE8F08170B504466348B0FB31
:10CD7000F4F5294600200DF0D9FF0023AFF2470259
:10CD8000012118460EF078F970BD1CB5044601214A
:10CD9000072005F0CFFC0121080205F025FD6846BB
:10CDA00005F072FA03208DF8040000208DF80500CC
:10CDB000FF2000906946524805F01EFA03208DF8C6
:10CDC000040000208DF805000320009069464D48BE
:10CDD00005F012FA03208DF8040000208DF80500FC
:10CDE000072000906946484805F006FAFFF784FFDF
:10CDF00001230D22D0213F480CF02EFE3E4806F0C4
:10CE00004EF92046FFF7B0FF1CBD0020002100BFF7
:10CE100004E000223D4B43F82020401C0D28F8D3AD
:10CE2000002015E0002110E000EB800202EBC002C0
:10CE3000304B03EB420232F81120344B53F82130CF
:10CE40001A44324B43F82120491C0D29ECD3401CD5
:10CE50001028E7D3002007E02C4A52F820201209BE
:10CE60002A4B43F82020401C0D28F5D3704701467B
:10CE70000D2901DB00207047244850F82100FAE713
:10CE800030B50446002321E0C3EBC300204942181B
:10CE9000D0780D280ADA10791F2807DAD078FFF742
:10CEA000E6FF81B215791B4820F8151050790D283E
:10CEB0000ADA90791F2807DA5079FFF7D8FF81B294
:10CEC0009579144820F81510581CC3B2102BDBDBE1
:10CED000002308E01846FFF7CAFF81B20D4820F88A
:10CEE0001310581CC3B2032BF4DB002030BD00002C
:10CEF00010640240182B00200020014040420F0027
:10CF0000000002400004024000080240B82C00204B
:10CF100090440020A243002010B58B4805F0D7F9BB
:10CF2000C0F38204204610BD002006E0FF21874A9E
:10CF300002EB40025170411CC8B20328F6DB704777
:10CF400000200EE0814B03EB40010A78002A06DD49
:10CF5000531EDBB21A460B700AB9FF234B70411CFB
:10CF6000C8B20328EEDB70470246002110E0774884
:10CF700000EB41004078904208D1744810F811004D
:10CF8000022801DA012070470020FCE7481CC1B2EA
:10CF90000329ECDB002111E06C4800EB41004078F4
:10CFA000FF2809D1694800EB410042700320674B1C
:10CFB00003F811000020E6E7481CC1B20329EBDBAF
:10CFC0000020E0E770B50125012061490880FFF7E6
:10CFD000A3FF6049088060480088604908805D4878
:10CFE00000780978484000F007005D490880002477
:10CFF00028E05B480088564909880840C0B12046AF
:10D00000FFF7B2FFA0B15348008851490988084092
:10D0100038B1524800884E49098808434F49088072
:10D0200006E04E4800884A49098888434B490880F1
:10D03000474800884FF6FF7101EA400044490880E4
:10D04000601CC4B2032CD4DBFFF77AFF434800888E
:10D0500041490988884201D1002507E03F480088FE
:10D060003D4908803E4800883E490880284670BDFA
:10D07000014601208840394B1B8800EA03020AB1AF
:10D08000012070470020FCE730B50025002409E0AE
:10D090002046FFF7EDFF18B10120A040284385B2DC
:10D0A000601CC4B2032CF3DB284630BD10B5FFF77B
:10D0B00089FF00B910BD2B48007800F0070028B1A7
:10D0C000FFF7E2FFC4B2204602F033FF00BFF1E7F2
:10D0D0004FF6FF70204908802349088000201D4931
:10D0E00008801E4908801E4908801E4908800120CA
:10D0F00017490880704700B5FFF7EAFF00BD10B57B
:10D10000FFF7E6FFFFF710FF0121080705F05BFBC3
:10D11000012007F056F9002005F0A9F9002007F0DA
:10D1200050F90121880305F05FFB002405E00F4959
:10D13000085D0F490BF0C3FA641C032CF7DBFFF703
:10D14000A3FF0C49488710BD0018024026000020AC
:10D15000240000201C0000201A0000201E000020D7
:10D16000200000202200002018000020E0E6010836
:10D1700000020001A043002010B5002416E042493F
:10D18000085D40F201210BF09AFA404A115D3E4AD7
:10D19000105D0BF0CFFA3E4901EB4410202110F056
:10D1A000B8F93B4901EB44110C70641C102CE6DB10
:10D1B00010BD70B504460D463349085D29460BF095
:10D1C000B9FA70BD10B504462F49085D0BF0A3FAFB
:10D1D000C0B210BD10B504462B49085D0BF0B9FA7A
:10D1E00010BD70B50446254628780021FFF7E1FF01
:10D1F000E86908B1E869804770BD7CB504460D4612
:10D200001646234800EB4410C66101212046FFF773
:10D21000D0FF1F4800EB4410001D1D4901EB4411D5
:10D22000AFF241032A46CDE90010002128460CF058
:10D2300056F97CBD70B50025002409E02046FFF7B3
:10D24000C1FF18B10120A040284385B2601CC4B2C0
:10D25000102CF3DB284670BD10B5002405E000213A
:10D260002046FFF7A6FF601CC4B2102CF7DB10BDF0
:10D2700010B5002405E001212046FFF79AFF601C4D
:10D28000C4B2102CF7DB10BDE3E60108F3E6010899
:10D29000EC2C002070B504460D46E1B2054805F0BF
:10D2A00001FD00BF4021034805F0ACFD0028F9D086
:10D2B000204670BD0010014070B505460C4604F0D4
:10D2C000070010B1002009F065FC04F0100070B1F7
:10D2D0006A48007800F0010010B10DF03BFF06E055
:10D2E0006648007800F0020008B10DF033FF70BD11
:10D2F00000B585B04FF4E13000900020ADF8040097
:10D30000ADF80600ADF80800ADF80C000C20ADF843
:10D310000A00694600200DF06DFA25208DF81000F6
:10D320000F208DF8110000208DF8120001208DF8DB
:10D33000130004A804F06FFE012240F2255150486A
:10D3400005F03BFD4FF402714E4810F0E2F8AFF2E9
:10D3500097004C49C1F8040209F0F4FC05B000BD87
:10D3600010B50446474890F8001290F80002401C9F
:10D37000444A82F80002104644540421D0F80422A2
:10D380000020904710BD10B5044621463C4805F0EA
:10D3900089FC00BF40213A4805F034FD0028F9D04F
:10D3A00010BD70B505460E46002404E0285DFFF769
:10D3B000EAFF601CC4B2B442F8DB32481021D0F856
:10D3C00004220020904770BD70B505460E461446F5
:10D3D000BF2C14DC2C4909680C7009202A49096803
:10D3E0004870294800688570224631462648006802
:10D3F000C01C10F075F82548007809F0A1FB70BD3D
:10D4000070B504460D46164604F14001C8B23246D6
:10D410002946FFF7D9FF70BD70B505460E46144684
:10D4200025B9E1B23046FFF7BCFF01E0002070BD36
:10D4300000BF2046FBE730B50346EBB9114890F832
:10D440000002104C94F80142A04213D00D4890F80D
:10D4500001020C4C205C087094F80142601CC41757
:10D4600000EB14642412A0EB0424064D85F801425D
:10D47000012030BD0020FCE70020FAE76D0000200D
:10D4800000100140EC2E002074E701086F0000201E
:10D49000002111E001208840FE4A1278104000B1BE
:10D4A00008E001208840FB4A12781043F94A1070C6
:10D4B00008467047481CC1B20829EBDB0820F8E792
:10D4C000082806DA01218140F24A12788A43F1499C
:10D4D0000A707047F0480078F04A1278904201D103
:10D4E00008207047EE48EC4A1278815CEA4A1278CC
:10D4F000501CC21700EB5272D210A0EBC202E64BD6
:10D500001A700846EDE7E5480078411CC81701EBA2
:10D510005070C010A1EBC000DF4A1278904201D1D8
:10D52000012070470020FCE7DC480078DA490978E0
:10D53000884201D1012070470020FCE710B5044665
:10D540000DF008FE10BD7CB504460D46D5480078A8
:10D5500000F0010020B9D348007800F0020088B143
:10D5600004EB440000EBC400CF4901EBC0002830BD
:10D570000021AFF237036422CDE900104FF4FA70B6
:10D580000BF0ADFF7CBD7FB5002609F00FFC064611
:10D59000FFF7CAFF002877D1C148BF490978445C2A
:10D5A00004EB4400C14901EBC0004088082801DBBE
:10D5B000082505E004EB4400BC4901EBC000857878
:10D5C0008DF8045004EB4400B84901EBC000808A98
:10D5D00004EB4401B54A02EBC101498A40EA8120CB
:10D5E00040F00040009004EB440002EBC0002A46EB
:10D5F00081680DF105000FF073FF68460CF024FC04
:10D60000F0B304EB4400A94901EBC0004088401B83
:10D6100004EB4401A54A02EBC101488004EB44003D
:10D62000114601EBC0004088D0B904EB440102EB85
:10D63000C10148680BF0D6FBFFF74CFF2046FFF70F
:10D640003FFF04EB4402994B03EBC20202F10D01D0
:10D6500004EB440203EBC202D07BFFF774FF0CE043
:10D6600004EB4400914901EBC0008068284404EBBE
:10D6700044018E4A02EBC101886001208C4901E01F
:10D6800001E001E008700FE0002089490870894935
:10D69000087000220121884806F0E8F987480068F0
:10D6A00010B1864800688047304609F083FB7FBD93
:10D6B00010B5044679490978481CC11700EB51712F
:10D6C000C910A0EBC101744A1278914200D110BD7B
:10D6D000734872490978445470490978481CC11745
:10D6E00000EB5171C910A0EBC1016C4A1170704878
:10D6F000007808B9FFF747FF00BFE8E700BF7049AF
:10D700000978481CC11700EB5171C910A0EBC10189
:10D710006B4A117000BF00BF704710B5002413E0C2
:10D7200004EB440101EBC4015F4A02EBC100582144
:10D730000FF0EFFE04EB440000EBC4005A4901EB8C
:10D74000C0000471601CC4B2082CE9DB10BD0020CD
:10D750001BE002280AD05B49098800EB400202EB7B
:10D76000C002514B03EBC202D1800BE0554909883E
:10D77000491C00EB400202EBC0024B4B03EBC20220
:10D78000D18000BF00BF411CC8B20828E1DB704750
:10D79000002012E000214C4A02EB001211804A4A9C
:10D7A00002EB00125180484A02EB00125160464AD7
:10D7B00002EB00129160411CC8B20828EADB00218C
:10D7C000344A1170354A1170334A1170384A117059
:10D7D000384A117070472DE9F04106460F4608217E
:10D7E0000A200BF0F1FB044644B125461220A87034
:10D7F000AE60EF6020460BF005FC00BFBDE8F08195
:10D8000030B587B02C4805F08FFD04A805F0B0FEB8
:10D8100000208DF8160001208DF8170000208DF8EB
:10D8200018008DF819008DF81A0001208DF81B00E2
:10D8300000208DF812008DF8130003208DF81400DD
:10D8400002208DF815002148006840092049B0FBEE
:10D85000F1F080B2ADF8100004A80CF043FA41F6E4
:10D86000FF741848008820F00100C0F3090004216B
:10D8700001EBC00500208DF80A008DF80B00012097
:10D880008DF80C004FF6FF7000EA1540ADF800006F
:10D8900020E000002C0000202E0000202D000020A1
:10D8A0002F0000206D000020F430002034340020D0
:10D8B00037000020380000200064004040000020B5
:10D8C0003E0000203A000020B43300200400002075
:10D8D00048E80100ADF802504FF6FF7000EA14402E
:10D8E000ADF80400ADF806400020ADF808000120B6
:10D8F0008DF80D00684605F0BAFD01208DF80A008C
:10D9000000208DF80B0001208DF80C004FF6FF7001
:10D9100000EA1540ADF80000ADF802504FF6FF7078
:10D9200000EA1440ADF80400ADF806400120ADF85F
:10D9300008008DF80D00684605F099FD00BFFD4810
:10D94000008820F00100401CC0F30900042101EB15
:10D95000C00502208DF80A0000208DF80B00012080
:10D960008DF80C004FF6FF7000EA1540ADF800008E
:10D97000ADF802504FF6FF7000EA1440ADF8040015
:10D98000ADF806400020ADF8080001208DF80D002C
:10D99000684605F06CFD03208DF80A0000208DF824
:10D9A0000B0001208DF80C004FF6FF7000EA1540C7
:10D9B000ADF80000ADF802504FF6FF7000EA1440D9
:10D9C000ADF80400ADF806400120ADF808008DF870
:10D9D0000D00684605F04BFDE51E04208DF80A0099
:10D9E00000208DF80B0001208DF80C004FF6FF7021
:10D9F00000EA1540ADF80000ADF802504FF6FF7098
:10DA000000EA1440ADF80400ADF806400020ADF87F
:10DA1000080001208DF80D00684605F028FD05205E
:10DA20008DF80A0000208DF80B0001208DF80C0005
:10DA30004FF6FF7000EA1540ADF80000ADF8025057
:10DA40004FF6FF7000EA1440ADF80400ADF8064050
:10DA50000120ADF808008DF80D00684605F007FDBF
:10DA600001220221B44806F001F801221021B24837
:10DA700005F0FCFF00220121AF4805F0F7FF07B0D9
:10DA800030BD10B5AB4A022120200CF077FE18B152
:10DA900040F2FF30A7490880A6480088022807D036
:10DAA0000220A44908800A460221202001F08EF8B5
:10DAB0000020A2490870FFF730FEFFF748FEFFF78D
:10DAC00067FEFFF79DFE00209D49086010BD70B500
:10DAD000002509F06BF9054600BFFFF7FBFC044683
:10DAE000082C0ADA04EB4401964A02EBC1014868AB
:10DAF0000BF078F92046FFF7E3FC082CEDDB002063
:10DB000091490870914908709149087091490870CD
:10DB100091490870284609F04DF970BD10B58A4842
:10DB2000007810B98B48007860B18B480078401CB1
:10DB30008949087008460078B42803DBFFF7C7FF5F
:10DB4000FFF75EFEFFF7DAFD10BD2DE9F05F8146BD
:10DB500088464FF0000A814800680078C01CC5B2B2
:10DB6000D346C8F3090040F2FF31884202D158463B
:10DB7000BDE8F09F002606E078480068805D80EAF6
:10DB80000A0A701CC6B2AE42F6DB7448006800F8A0
:10DB900005A0FE207149096801F8010CA81C0BF0D2
:10DBA000DCF807460FB95846E2E7FFF771FC044678
:10DBB000082C04DB38460BF015F95846D8E704EB7F
:10DBC0004400604901EBC000476004EB440001EBF6
:10DBD000C0008760002004EB44015A4A02EBC101F7
:10DBE000C873A81C04EB440122F8310004EB440084
:10DBF000114631F8300004EB440102EBC1014880CA
:10DC0000002004EB440102EBC101087404EB440062
:10DC1000114601EBC000A0F8128004EB440001EBB8
:10DC2000C000A0F814904D480068407804EB44010F
:10DC300002EBC101487349480068817804EB440055
:10DC400002EBC000817345480068411EAA1C38469B
:10DC50000FF046FC2046FFF72BFD012088E72DE959
:10DC6000F04106460C4690461F46032E26D0022E53
:10DC700003D130480088401C01E02E48008885B25E
:10DC800036480068077004203449096848703348F2
:10DC9000006884703A46414630480068C01C0FF066
:10DCA0001FFC06EB460101EBC6012D4A02EBC10148
:10DCB00048892946FFF749FFBDE8F0810325F81C94
:10DCC00026490968087009202449096848702348D2
:10DCD00000688470022228466D1C204909680A5495
:10DCE000002228466D1C1D4909680A5428466D1CEF
:10DCF0001A4909680A54252C0FD028466D1C17496B
:10DD000009680C5421201549096888701348006877
:10DD10000078401C114909680870104909684819C1
:10DD20003A4641460FF0DCFB03F0A2FF00BF00BF04
:10DD30000020C1E73A000020006400403E000020BF
:10DD400040000020343400202C0000202E00002051
:10DD50002D000020370000203800002074E7010863
:10DD6000F43000202DE9F04180460C46FD4D274659
:10DD70002E46387830707878707032463946404692
:10DD800002F070FAB078C01CC3B23246A8214046F7
:10DD9000FFF765FF0020BDE8F081F0B585B00746CC
:10DDA0000C4625466E46287830706878707032468A
:10DDB0002946384602F078FC06233246A821384628
:10DDC000FFF74DFF002005B0F0BDF0B585B0074668
:10DDD0000C4625466E46287830706878707032465A
:10DDE0002946384602F00FFC06233246A821384661
:10DDF000FFF735FF002005B0F0BD2DE9F04180466A
:10DE00000C46D84D26462F4630783870707878709A
:10DE10003A463146404602F0B5FC08233A46A8216E
:10DE20004046FFF71CFF0020BDE8F0812DE9F041DE
:10DE300080460C46CB4D26462F4630783870707899
:10DE400078703A463146404602F093FB08233A4642
:10DE5000A8214046FFF703FF0020BDE8F0812DE92F
:10DE6000F04180460C46BF4D26462F46307838702C
:10DE7000707878703A463146404602F0D2FA06236E
:10DE80003A46A8214046FFF7EAFE0020BDE8F081AF
:10DE90002DE9F04180460C46B24D26462F4630789B
:10DEA0003870707878703A463146404602F08AFA07
:10DEB00006233A46A8214046FFF7D1FE0020BDE8E0
:10DEC000F0812DE9F04180460C46A64D27462E46AE
:10DED000387830707878707032463946404602F0B3
:10DEE000F2FAB078C01CC3B23246A8214046FFF710
:10DEF000B6FE0020BDE8F0812DE9F04180460C46D9
:10DF0000984D27462E4638783070787870703246B3
:10DF10003946404602F003FAB078C01CC3B232461C
:10DF2000A8214046FFF79BFE0020BDE8F0812DE9C7
:10DF3000F04180460C468B4D27462E46387830708F
:10DF40007878707032463946404602F09DF8B078D5
:10DF5000C01CC3B23246A8214046FFF780FE002015
:10DF6000BDE8F08138B505467F480068C41C2078BC
:10DF700005EB450101EBC5017C4A02EBC1010873C9
:10DF8000607805EB450101EBC50102EBC101487367
:10DF90006078062833D006DC06283FD2DFE800F0A0
:10DFA0003E1611390C1B0F281AD010282CD08028AF
:10DFB0001BD0812832D11DE021462846FFF7B7FF4C
:10DFC00036E021462846FFF797FF31E021462846F4
:10DFD000FFF777FF2CE021462846FFF759FF27E09F
:10DFE00021462846FFF73BFF22E021462846FFF75F
:10DFF0001DFF1DE021462846FFF7FFFE18E02146E1
:10E000002846FFF7E2FE13E021462846FFF7C5FE4B
:10E010000EE021462846FFF7A5FE09E0607854A3EC
:10E0200040F2815258A1009004200BF0ADF900BFDE
:10E0300000BF002038BD2DE9FF4707460D462E469C
:10E040006C4604F1050830682060E07840F08000FC
:10E05000E0703079207102202070002088F80000E4
:10E06000307928B906F10509484602F0ABFD00E019
:10E0700000BF00BF2078001DC3B2224621213846D0
:10E08000FFF7EDFD002004B0BDE8F0872DE9F04179
:10E0900007460C4625462879022804D16E1D3078A3
:10E0A00001F056FF00E000BF00BF0020BDE8F08196
:10E0B00070B504460D4604EB440000EBC4002B4948
:10E0C00051F8300020F0010004EB440101EBC401E1
:10E0D000264A42F8310004EB440000EBC40011462C
:10E0E00051F8300020F0080004EB440101EBC401BA
:10E0F00042F83100002004EB440101EBC40102EBC3
:10E10000C1010872FEF7F7FF02F07CFD002070BD30
:10E1100010B500EB400202EBC002144B53F8322062
:10E1200061F3000200EB400303EBC0030F4C44F823
:10E13000332010BD10B5044604EB440000EBC400CE
:10E140000A4951F8300020F00200801C04EB440121
:10E1500001EBC401054A42F8310001212046FFF7D6
:10E16000D7FF10BDF434002070E70108F430002020
:10E17000756E6B6E6F77206D6F6462757320636F61
:10E1800064652025780D0A0043616E436D642E633B
:10E19000000000007CB50446E5B2C4F30726012068
:10E1A0008DF8000081208DF803008DF801600220B9
:10E1B0008DF8020005236A4621212846FFF74FFD0E
:10E1C0007CBD10B504462146AFF23700FFF703FBD4
:10E1D00010BD7CB505462C462078C0F34000A8B1A0
:10E1E00020784008401E216860F3410121602078BA
:10E1F000C0F3400050B104F11000CDE90040628846
:10E200001046F94B00210BF06AF97CBD206820F024
:10E210000800206020790021FFF77AFF2079002193
:10E2200002F054FBF1A34FF45F72AFF2A40104209B
:10E230000BF0AAF800BFE8E710B504462146AFF29C
:10E240006D00FFF7C8FA10BD7CB504460D462E469A
:10E2500004EB440000EBC400E94901EBC000408836
:10E260004FF6FF7188422CD004EB440000EBC40051
:10E27000E34901EBC000408818B304EB440000EB15
:10E28000C40001EBC000103004EB440101EBC401F9
:10E29000DB4A02EBC101CDE9001004EB440101EBC4
:10E2A000C401134603EBC1014A8804EB440101EBAE
:10E2B000C40103EBC1014888AFF2830300210BF0D6
:10E2C0000EF904EB440000EBC400CD4901EBC000A3
:10E2D0004030717844EA0121CDE9001004EB84015B
:10E2E0008A0004EB84018800AFF2291300210BF0AF
:10E2F000F6F82046FFF71EFF00207CBD2DE9FC410B
:10E3000004460E463546002004EB440101EBC401EF
:10E31000BB4A02EBC101087204EB440000EBC400ED
:10E32000114651F8300020F00800083004EB440199
:10E3300001EBC40142F83100611DC8B20AF04CFF84
:10E34000022C50D0032C59D02F1D388804EB4401E7
:10E3500001EBC401AA4A02EBC101488004EB44006E
:10E3600000EBC400114601EBC00040884FF6FF717E
:10E3700088422CD004EB440000EBC400114601EBB2
:10E38000C000408818B304EB440000EBC40001EB6C
:10E39000C000103004EB440101EBC40102EBC101E9
:10E3A000CDE9001004EB440101EBC401134603EB7B
:10E3B000C1014A8804EB440101EBC40103EBC10134
:10E3C0004888AFF28B1300210BF089F80AE004EBC8
:10E3D000440101EBC4018A4A02EBC10101F11000C2
:10E3E0000BF038F815E0281D018804EB440202EB1D
:10E3F000C402834B03EBC20251800AE0281D01884E
:10E4000004EB440202EBC4027D4B03EBC2025180D9
:10E4100000BF00BF2046FFF78DFE0020BDE8FC8155
:10E4200070B5054677480068C41CE07800F07F00AE
:10E4300002281DD003DC38B1012837D10EE01028A6
:10E4400020D0142832D127E0E07800F0800020B1FD
:10E4500021462846FFF752FF70BD28E0E07800F023
:10E46000800020B921462846FFF7EEFEF4E700BF02
:10E47000E07800F0800020B921462846FFF718FE1A
:10E48000EAE714E0E07800F0800020B12146284659
:10E49000FFF7FCFDE0E70AE0E07800F0800020B93B
:10E4A00021462846FFF7C7FDD6E700E000BF00BFC2
:10E4B0000020D1E710B50446524800688078212832
:10E4C00002D0282808D103E02046FFF7A9FF03E087
:10E4D0002046FFF747FD00BF00BF002010BD10B56C
:10E4E0000CF079FE4FF0E021896989B240EA01041D
:10E4F00020460EF0EDFF0EF0E1FF4FF4FF7190FBB0
:10E50000F1F201FB120000F5007084B2204610BD4C
:10E510002DE9F04105460C4601260120FEF77FFB60
:10E52000394800EB0410C08905EB450101EBC5013A
:10E53000334A02EBC1014881334A02EB04121188CD
:10E54000314A02EB0412506808F08EFB00283CD0E0
:10E550002E4800882E49088001202E49087029483D
:10E560000068407804281DD0092802D00D281ED14B
:10E5700003E008F0EBF906461DE0224800688778C2
:10E5800008F04FFA0646052F0BD121480088C0F34A
:10E59000090040F2FF31884203D1FFF7A0FF1C4978
:10E5A000088008E02846FFF785FF064603E008F0EC
:10E5B000AFFA064600BF00BF3EB1134901EB04119C
:10E5C000C88913490988FFF7C0FABDE8F08170B522
:10E5D00004460D460C4800EB04100088002859D171
:10E5E000E87AFE2818D070BD39E200086C6F7374A9
:10E5F000206865617274626561740D0A0000000034
:10E60000F430002070E70108B43300203A00002005
:10E610003C0000206E000020287B461DFB4800EBDC
:10E620000410068030460AF098FBF84901EB04110B
:10E630004860F64800EB04104068F44901EB04110F
:10E640008860F24800EB0410406840B1AA7AEF49B4
:10E6500001EB0411886805F10B010EF041FFEB4856
:10E6600000EB04108068A97A0844E84901EB041122
:10E670008860A87AE54901EB04114880E34800EB83
:10E68000041004736868C0F38920E04901EB0411A9
:10E69000C88148E0DD4800EB04104088A97A0844AE
:10E6A00086B2DA4800EB04100088B04208DBD74895
:10E6B00000EB04100088B04213DDA87A082810DAB5
:10E6C0000020D24901EB04110880D04901EB04116C
:10E6D00048680AF087FB0020CC4901EB0411486030
:10E6E00070BDCA4800EB0410406840B1AA7AC7491F
:10E6F00001EB0411886805F10B010EF0F1FEC3482F
:10E7000000EB04108068A97A0844C04901EB0411A9
:10E710008860BE4800EB04104088A97A0844BB49D1
:10E7200001EB04114880B94800EB04104088B74958
:10E7300001EB04110988884234D1B44800EB04107D
:10E74000008878B3B14800EB0410406888B124B168
:10E75000012C03D0022C0BD105E000BF2146012083
:10E76000FFF7D6FE04E021460220FFF7D1FE00BFEE
:10E7700000BF0020A54901EB04110880A34901EB6B
:10E7800004114880A14800EB0410406828B19F495B
:10E7900001EB041148680AF025FB00209B4901EBBE
:10E7A0000411486000BF9BE770B506460024F51CC5
:10E7B000285D0C2801D0002070BD641C28190CF0C5
:10E7C000F5FC08B10020F7E70C34601C285C295DDB
:10E7D00040EA01208E49088008460088C0F30A00FC
:10E7E0000880FFF70DF8FEF7B2FF0120E4E72DE9FE
:10E7F000F041074607F108067568C5F3090540F2C0
:10E80000FF30854201D1002406E0C5F3090002284B
:10E8100001D1012400E0022431462046FFF7D7FE53
:10E820000020BDE8F08110B5002200EB400303EBAF
:10E83000C003784C04EBC3031A7210BD30B5044614
:10E840000D46052C06DB0D2C04DA611FC8B22946E3
:10E85000FFF7E9FF30BD2DE9F0470746884614462B
:10E860001D46DDE908966C48006806706A48006835
:10E8700044706948006885703246494666480068B9
:10E88000C01C0EF02DFE41463846FFF75EF9BDE88C
:10E89000F0872DE9F0470746884691461C46DDE99A
:10E8A00008A6032F16D05C480068067004205A4959
:10E8B0000968487058480068847032465146564886
:10E8C0000068C01C0EF00CFE49464046FFF73DF9BB
:10E8D000BDE8F0870325F01C4F490968087009203E
:10E8E0004D49096848704C480068847002222846E7
:10E8F0006D1C494909680A54002228466D1C464986
:10E9000009680A5428466D1C434909680A54252C95
:10E910000FD028466D1C404909680C5421203E49FF
:10E92000096888703C4800680078401C3A490968CA
:10E930000870394909684819324651460EF0D0FD31
:10E9400003F096F900BF00BF0020C1E770B505468F
:10E950000E46144630480068047009202E490968A4
:10E96000487030202C4909688870224631462A4870
:10E970000068C01C0EF0B4FD254801882846FFF74A
:10E98000E4F870BD0FB430B591B0044616A80090FD
:10E9900001A8009A15990FF01FFA0020009001A815
:10E9A0000EF0CCFDC5B22A4601A92046FFF7CEFFE6
:10E9B00011B030BC5DF814FB18490860704770B5A1
:10E9C00004462546A86810B1D5E90210884770BDF5
:10E9D00070B590B00646F5B26C460020E070012D8F
:10E9E00002D0022D30D11DE0211D0822227002220A
:10E9F0006270A270002006E0094A32F8102001EB94
:10EA000040031A80401C0428F6DB3DE0B4330020AC
:10EA10003A000020F430002074E701084000002094
:10EA20001E440020211D1022227003226270A27059
:10EA3000002006E0614A52F8202001EB80031A60B2
:10EA4000401C0428F6DB1FE0211D18222270102232
:10EA50006270A270002007E0584A0A3A32F810208B
:10EA600001EB40031A80401C0428F5DB002008E07D
:10EA7000524A52F8203001F1080202EB8002136082
:10EA8000401C0428F4DB00BF00BF691DC8B24FF66C
:10EA9000FF734FF4FA7201210AF0E3FB012005EB4A
:10EAA000450101EBC501464A02EBC101087205EBC5
:10EAB000450101EBC50102EBC10148812078001D31
:10EAC000C3B2224621212846FFF7C9F810B070BD15
:10EAD00010B504462146AFF20710FEF77CFE10BDCC
:10EAE0001CB5044604EB440000EBC400344901EBC0
:10EAF000C000007A00B11CBD04EB440000EBC40070
:10EB00002F4911F83000C0F3C00000B1F3E704EB67
:10EB1000440000EBC4002A4901EBC000403004EB84
:10EB200084018A0004EB8401CDE900408800AFF243
:10EB30005F0300210AF0D3FC00BFDCE710B50446F8
:10EB400020480088C0F3090040F2FF31884200D11C
:10EB500010BD2046FFF7C4FF00BFF9E71FB56C46A4
:10EB600018480088C0F3090040F2FF31884202D102
:10EB7000FF2004B010BD022020700020607004202F
:10EB8000A0700320E0700F480088A08001210C488D
:10EB9000A0F812112078001DC3B26A46212103207B
:10EBA000FFF75DF8C0B2E4E710B50120FFF7C6FF3C
:10EBB0000220FFF795FFFEF7B1FF10BD28440020AB
:10EBC000F43000203A0000205C4870472DE9F04105
:10EBD00004460D4616463246294620460BF074FD83
:10EBE00007463846BDE8F0812DE9F04104460D4660
:10EBF00016463246294620460BF0C0FD07463846E9
:10EC0000BDE8F08170B504460E4615464C480068D4
:10EC1000057009204A4909684870494800688470AD
:10EC20002A46314646480068C01C0EF059FC45484B
:10EC3000007807F085FF70BD10B504464248216892
:10EC40000160616841602189018102460A218120B9
:10EC5000FFF7BCFF10BD01463B4802680A604268EE
:10EC60004A60008908810A2070473848384908609E
:10EC7000704730B504460D46A11C087800B900E085
:10EC800000BF00BF002030BD2DE9F04104460E4614
:10EC90001746984600256078F02805D0F12807D15E
:10ECA0000120FDF7F2FF03E00120FDF7B8FF00BFF0
:10ECB00000BF2846BDE8F0812DE9F04104460D462D
:10ECC00016461F463B46324629462046FFF7DCFFE4
:10ECD000BDE8F08110B522211E480EF01AFC1E4A34
:10ECE000022121200BF04AFD10B100201A490880B2
:10ECF0001A4A082122200BF041FD28B92222184986
:10ED000016480EF030FC50B1144815490A680260EC
:10ED100049684160024608212220FFF757FF0A4A4E
:10ED20000A218120FFF760FF38B107490DA0026872
:10ED30000A6042684A600089088110BD18E701082E
:10ED400074E701086F000020F43800200400FA0581
:10ED50000CED00E0FE3800204400002046000020BA
:10ED60002BE7010850574541313233343536000026
:10ED700038B504460D4604EB0410C0EBC410FE4940
:10ED800001EB800090F88C01A84200D138BD0DBB8A
:10ED900004EB0410C0EBC410F74901EB8000D0F87D
:10EDA000B80168B104EB0411C1EBC411F24A02EBE3
:10EDB00081016A46D1F8B801012108F0D8FD00BFF1
:10EDC00004EB0410C0EBC410EB4901EB800080F8A9
:10EDD0008C5127E004EB0410C0EBC410E64901EBB2
:10EDE0008000D0F8B801E8B9002008F09DFC04EBE1
:10EDF0000411C1EBC411E04A02EB8101C1F8B80172
:10EE000004EB0410C0EBC410114601EB8000D0F8F5
:10EE1000B80138B104EB0410C0EBC41001EB800062
:10EE200080F88C5100BFB1E730B585B0044604EBE3
:10EE30000410C0EBC410D04901EB8000D0F8AC0145
:10EE400008B905B030BD04EB0410C0EBC410CA4AC9
:10EE500002EB8000D0F8AC112046884704EB041088
:10EE6000C0EBC410C44901EB8000D0F8900100B998
:10EE7000E7E704EB0410C0EBC410BF4901EB8000CE
:10EE800090F894018DF810000F208DF811000020EB
:10EE90008DF8120001208DF8130004A803F0BBF8D0
:10EEA00004EB0410C0EBC410B34901EB8000D0F8B0
:10EEB0009E01009004EB0410C0EBC41001EB800035
:10EEC00090F8A201AD4931F81000ADF8040004EB50
:10EED0000410C0EBC410A84901EB800090F8A30116
:10EEE000A74931F81000ADF8060004EB0410C0EBA0
:10EEF000C410A14901EB800090F8A401A14931F8A8
:10EF00001000ADF808000020ADF80C000C20ADF8A2
:10EF10000A0004EB0411C1EBC411974A02EB810112
:10EF200091F8980169460BF065FC04EB0411C1EB04
:10EF3000C411914A02EB81010122D1F8900140F203
:10EF4000255103F03AFF904850F8240018BB04EB19
:10EF50000410C0EBC410884901EB800090F88C517C
:10EF60000120894941F82400002004EB0411C1EB81
:10EF7000C411814A02EB810181F88C0104EB041178
:10EF8000C1EBC41102EB8101C1F8B801294620464A
:10EF9000FFF7EEFE00BF04EB0410C0EBC41076498F
:10EFA00001EB800090F8A50104EB0411C1EBC41142
:10EFB000714A02EB8101A1F8880104EB0410C0EB57
:10EFC000C410114601EB800090F89C01B8B904EB25
:10EFD0000411C1EBC41102EB810191F8A80140F2C8
:10EFE000012109F06CFB04EB0411C1EBC411624A6E
:10EFF00002EB810191F8A801002109F09BFB00BF01
:10F000001FE770B504460D4604EB0410C0EBC410B6
:10F01000594901EB800090F89C0100B170BD65B1C9
:10F0200004EB0411C1EBC411534A02EB810191F8C6
:10F03000A801012109F07EFB0BE004EB0411C1EBF8
:10F04000C4114D4A02EB810191F8A801002109F099
:10F0500071FB00BFE2E710B5002400BF03E0E0B29F
:10F06000FFF7E2FE641C062CF9DB10BD2DE9F04130
:10F0700004460F461546062C02DB0020BDE8F08151
:10F0800004EB0410C0EBC4103B4901EB800090F886
:10F090009D0100287AD104EB0411C1EBC411364A5A
:10F0A00002EB8101B1F8821104EB0412C2EBC4122D
:10F0B000314B03EB8202B2F88021914201D18021D1
:10F0C00019E004EB0411C1EBC4112B4A02EB8101DE
:10F0D000B1F88211803104EB0412C2EBC412264B4A
:10F0E00003EB8202B2F88021881AC11700EB51614C
:10F0F000C911A0EBC1118EB2AE4201DA0020BDE70A
:10F1000001212046FFF77DFF04EB0410C0EBC41083
:10F11000194901EB8000B0F8800104EB0411C1EB48
:10F12000C411154A02EB8101B1F8821188427DDBDE
:10F1300004EB0410C0EBC410114601EB8000B0F8E2
:10F140008001C0F18000A84233DD04EB0411C1EB63
:10F15000C41102EB810104EB0412C2EBC412064B92
:10F1600003EB8202B2F8802188182A4639460EF055
:10F17000B7F904EB04100AE02039002034E7010855
:10F1800038E701083EE701088843002097E0C0EB1C
:10F19000C410FA4901EB8000B0F88001284404EB68
:10F1A0000411C1EBC411F54A02EB8101A1F8800101
:10F1B00076E004EB0411C1EBC411F04B03EB8101C9
:10F1C00004EB0413C3EBC413DFF8B0C30CEB8303ED
:10F1D000B3F88031C81804EB0411C1EBC4116346C5
:10F1E00003EB8101B1F88011C1F1800239460EF0C4
:10F1F00077F904EB0410C0EBC410E04901EB800088
:10F20000B0F88001C0F18000074404EB0410C0EBAB
:10F21000C41001EB8000B0F88001C0F18000281A12
:10F2200085B204EB0411C1EBC41100E010E0D34A35
:10F2300002EB81002A4639460EF052F904EB041025
:10F24000C0EBC410CD4901EB8000A0F8805127E04D
:10F2500004EB0411C1EBC411C84A02EB810104EBB9
:10F260000412C2EBC412C54B03EB8202B2F8802138
:10F2700088182A4639460EF033F904EB0410C0EB27
:10F28000C410BE4901EB8000B0F88001284404EBB3
:10F290000411C1EBC411B94A02EB8101A1F880014C
:10F2A00004EB0411C1EBC411B44A02EB8101012249
:10F2B000D1F8900140F2277103F07FFD20E0002695
:10F2C0001CE0B95D04EB0412C2EBC412AB4B03EBC0
:10F2D0008202D2F8900103F0E5FC00BF04EB0411B8
:10F2E000C1EBC411A54A02EB8101D1F89001402184
:10F2F00003F088FD0028F1D0701C86B2AE42E0DB3E
:10F300000120BBE6002100EB0012C2EBC0129B4BB8
:10F3100003EB8202A2F88A1170472DE9F0410446FE
:10F320000E46154604EB0411C1EBC411934A02EBDF
:10F330008101B1F8861104EB0412C2EBC4128F4BA9
:10F3400003EB8202B2F88421914202D14FF4807122
:10F350001AE004EB0411C1EBC411884A02EB8101ED
:10F36000B1F8861101F5807104EB0412C2EBC412EE
:10F37000824B03EB8202B2F88421881AC11700EB9A
:10F3800011610912A0EB01218FB2AF4202DA002015
:10F39000BDE8F08104EB0410C0EBC410774901EB29
:10F3A0008000B0F8840104EB0411C1EBC411734A6E
:10F3B00002EB8101B1F8861188427CDB04EB04107A
:10F3C000C0EBC410114601EB8000B0F88401C0F519
:10F3D0008070A84228DD04EB0411C1EBC41102EBDC
:10F3E0008101803104EB0412C2EBC412634B03EBC6
:10F3F0008202B2F8842188182A4631460EF070F84D
:10F4000004EB0410C0EBC4105C4901EB8000B0F8C1
:10F410008401284404EB0411C1EBC411574A02EBE8
:10F420008101A1F884017AE004EB0411C1EBC4115D
:10F43000524B03EB8101803104EB0413C3EBC41383
:10F44000DFF838C10CEB8303B3F88431C81804EB40
:10F450000411C1EBC411634603EB8101B1F88411BF
:10F46000C1F5807231460EF03BF804EB0410C0EB9E
:10F47000C410424901EB8000B0F88401C0F58070EF
:10F48000064404EB0410C0EBC41001EB8000B0F89C
:10F490008401C0F58070281A85B204EB0411C1EB19
:10F4A000C411364A02EB810101F180002A4631463F
:10F4B0000EF016F800E009E004EB0410C0EBC410F5
:10F4C0002E4901EB8000A0F8845128E004EB0411E0
:10F4D000C1EBC411294A02EB8101803104EB041213
:10F4E000C2EBC412254B03EB8202B2F884218818C8
:10F4F0002A4631460DF0F4FF04EB0410C0EBC410B3
:10F500001E4901EB8000B0F88401284404EB04118B
:10F51000C1EBC411194A02EB8101A1F88401204614
:10F52000FFF7F0FE04EB0410C0EBC410134901EB2D
:10F530008000D0F8B40168B1012D0BD1317804EB13
:10F540000410C0EBC4100D4B03EB8000D0F8B421C5
:10F550002046904701201BE700EB0012C2EBC012CF
:10F56000064B03EB8202A2F8881100EB0012C2EBFB
:10F57000C01203EB8202A2F88A11704720390020E2
:10F580002DE9F04704460F46154604EB0411C1EB84
:10F59000C411FE4A02EB8101B1F88611C1F58071F8
:10F5A00004EB0412C2EBC412F84B03EB8202B2F874
:10F5B00084218818C11700EB11610912A0EB012109
:10F5C0001FFA81F8454501DB08F0FF05002D7DDDC0
:10F5D00000BF07F0EBFB814604EB0410C0EBC41046
:10F5E000EA4901EB8000B0F8860104EB0411C1EB9D
:10F5F000C411E64A02EB8101B1F88411884215DAA0
:10F6000004EB0410C0EBC41002EB8000803004EB6C
:10F610000412C2EBC412DD4B03EB8202B2F8862166
:10F6200081182A4638460DF05BFF6CE004EB0410AD
:10F63000C0EBC410D54901EB8000B0F88601C0F5DD
:10F640008070A8422DDC04EB0410C0EBC4100B4604
:10F6500003EB8000803004EB0413C3EBC4138C462F
:10F660000CEB8303B3F88631C11804EB0410C0EB34
:10F67000C410634603EB8000B0F88601C0F58072C9
:10F6800038460DF02DFF04EB0410C0EBC410BF4949
:10F6900001EB8000B0F88601C0F58070281A86B2B0
:10F6A00018E004EB0410C0EBC410B84A02EB800071
:10F6B000803004EB0412C2EBC412B44B03EB8202A1
:10F6C000B2F8862181182A46384600E05DE00DF048
:10F6D00007FF0026002E16DD04EB0412C2EBC41255
:10F6E000AA4B03EB820202F1800104EB0412C2EB8D
:10F6F000C41203EB8202B2F88621C2F58072D019DF
:10F7000032460DF0EDFE04EB0411C1EBC4119F4A2B
:10F7100002EB8101B1F886114819C11700EB1161A4
:10F720000912A0EB012104EB0412C2EBC412974BA7
:10F7300003EB8202A2F8861104EB0410C0EBC410A4
:10F74000194601EB8000B0F8860104EB0411C1EB0F
:10F75000C4111A4602EB8101B1F88411884210D11C
:10F76000002004EB0411C1EBC41102EB8101A1F8EC
:10F77000840104EB0411C1EBC41102EB8101A1F877
:10F780008601484607F016FB00BF2846BDE8F08713
:10F7900070B5044604EB0410C0EBC4107B4901EBC8
:10F7A0008000B0F8860104EB0411C1EBC411774A64
:10F7B00002EB8101B1F88411884200D170BD04EBE5
:10F7C0000410C0EBC410714901EB8000B0F88A014D
:10F7D000401C04EB0411C1EBC4116C4A02EB810123
:10F7E000A1F88A0104EB0410C0EBC410114601EB30
:10F7F0008000B0F88A0104EB0411C1EBC41102EBE4
:10F800008101B1F88811884242DB04EB0411C1EB9D
:10F81000C41102EB8101B1F88611C1F5807104EBCE
:10F820000412C2EBC412594B03EB8202B2F88421DA
:10F830008818C11700EB11610912A0EB01218EB2EB
:10F8400004EB0410C0EBC410194601EB800090F8E3
:10F850008C0180B93146042009F0B6FB0546B5B1EC
:10F86000F2B205F108012046FFF78AFEAC70284687
:10F8700009F0C8FB0BE004EB0411C1EBC411434ACF
:10F8800002EB8101D1F8B801012108F0B8F800BFFE
:10F8900000BF93E710B5044604EB0410C0EBC4109E
:10F8A0003A4901EB8000B0F8880104EB0411C1EB88
:10F8B000C411364A02EB8101A1F88A012046FFF704
:10F8C00067FF10BD70B5044604F1100504EB041089
:10F8D000C0EBC4102D4901EB800000F5CF720A2166
:10F8E00028460AF04BFF60B104EB0411C1EBC411D0
:10F8F000264A02EB810101F5CF70FF220A210DF0AB
:10F9000001FE04EB0410C0EBC410204901EB8000A1
:10F91000D0F89E01B0F5E13F0AD94FF4165004EB40
:10F920000411C1EBC411194A02EB8101C1F89E0117
:10F9300004EB0410C0EBC410144901EB800090F8F4
:10F94000A201022809DB002104EB0410C0EBC41063
:10F950000E4A02EB800080F8A21104EB0410C0EB09
:10F96000C4100A4901EB800090F8A301032809DBC9
:10F97000002104EB0410C0EBC410044A02EB800029
:10F9800080F8A31104EB041002E0000020390020ED
:10F99000C0EBC4104C4901EB800090F8A40103288F
:10F9A00009DB002104EB0410C0EBC410464A02EB53
:10F9B000800080F8A41104EB0410C0EBC41042498D
:10F9C00001EB800090F8A501FA280ADD0A2104EB7A
:10F9D0000410C0EBC4103C4A02EB800080F8A51173
:10F9E00014E004EB0410C0EBC410374901EB8000B5
:10F9F00090F8A5010A2809DA0A2104EB0410C0EBEB
:10FA0000C410314A02EB800080F8A51170BD014698
:10FA100001EB0110C0EBC1102B4A02EB800090F803
:10FA20008C017047014601EB0110C0EBC110264A62
:10FA300002EB8000B0F8860101EB0112C2EBC112AB
:10FA4000214B03EB8202B2F88421904201D10120C4
:10FA500070470020FCE710B5014601EB0110C0EB38
:10FA6000C110194B03EB8000B0F88201803001EB2C
:10FA70000113C3EBC113144C04EB8303B3F88031BF
:10FA8000C21AD01702EB5060C011A2EBC01010BD1B
:10FA900070B50546AC78062C14DA04EB0410C0EB04
:10FAA000C410094901EB8000D0F8B00150B104EB5B
:10FAB0000410C0EBC4100A4602EB8000D0F8B0116D
:10FAC00028468847002070BD203900202DE9FC41E0
:10FAD0000026B046FE4C671DFE4890F87E0000F000
:10FAE0001F0000286CD01020E0700220A070607011
:10FAF00000202071701CC6B2002550E0F548B0F817
:10FB00007E000121A9400840002846D005EB4501B0
:10FB10000D31C8B2002101913D70EE49891C31F8C8
:10FB20001010090A8DF80710EA49891C11F8101005
:10FB30008DF80610E749891C421C31F81210090A99
:10FB40008DF80510E349891C11F812108DF8041086
:10FB50000199C7F80310DF49891C821C31F8121083
:10FB6000A7F80110FF1DF11DCEB24FF00108D949D1
:10FB7000891C31F810203E3121F810203E39421CFA
:10FB800031F812303E3121F812303E39821C31F802
:10FB900012303E3121F8123000BF681CC5B2052D6D
:10FBA000ACDB2670B8F1000F0AD0301DC0B22123A3
:10FBB000CDE90040C848028801210846FEF769FEE9
:10FBC000BDE8FC812DE9FC410026B046C04D6F1D0B
:10FBD000C04890F87E0000F0E00000283AD01020E5
:10FBE000E8700220A870687001202871701CC6B2ED
:10FBF00000241EE0B748B0F87E00611D01228A4053
:10FC00001040A0B1E0B23C70B249891C31F810102C
:10FC1000C7F80110AF49891C31F810203E3121F896
:10FC20001020711DCEB27F1D4FF0010800BF601C77
:10FC3000C4B2032CDEDB2E70B8F1000F0AD0301DE9
:10FC4000C0B22123CDE90050A34802880121084613
:10FC5000FEF71FFEBDE8FC812DE9FC410026B04601
:10FC60009B4C671D9B48B0F8800000F4E0400028E2
:10FC70003CD01020E0700220A0706070062020713F
:10FC8000701CC6B2002520E09248B0F8800005F153
:10FC90000C0101228A401040A8B1E91CC8B23D7095
:10FCA0008C49891C31F81010C7F801108949891C4A
:10FCB00031F810203E3121F81020711DCEB27F1D89
:10FCC0004FF0010800BF681CC5B2032DDCDB2670B5
:10FCD000B8F1000F0AD0301DC0B22123CDE9004099
:10FCE0007D48028801210846FEF7D3FDBDE8FC816E
:10FCF0002DE9FC410026B046754C671D7548B0F8EB
:10FD0000800000F4407000283CD01020E0700220F9
:10FD1000A070607004202071701CC6B2002520E025
:10FD20006C48B0F8800005F1080101228A401040BB
:10FD3000A8B1E91DC8B23D706649891C31F81010A0
:10FD4000C7F801106349891C31F810203E3121F8B1
:10FD50001020711DCEB27F1D4FF0010800BF681C3E
:10FD6000C5B2022DDCDB2670B8F1000F0AD0301DC1
:10FD7000C0B22123CDE9004057480288012108463E
:10FD8000FEF787FDBDE8FC812DE9FC410027B84660
:10FD90004F4D6E1D4F48B0F8800000F440600028C1
:10FDA0004ED01020E8700220A870687005202871DD
:10FDB000781CC7B2002432E04648B0F8800004F155
:10FDC0000A0101228A40104038B34A1ED0B24A1CB0
:10FDD000D1B234703F4A921C32F81020C6F801208C
:10FDE0003C4A921C32F810303E3222F81030D6F8DD
:10FDF00001303E3A32F8112043EA0242C6F80120AF
:10FE0000344A921C32F811303E3222F811307A1DF9
:10FE1000D7B2761D4FF0010800BF601CC4B2022C9F
:10FE2000CADB2F70B8F1000F0AD0381DC0B22123F1
:10FE3000CDE900502848028801210846FEF729FD37
:10FE4000BDE8FC812DE9FC410026B046204C671D31
:10FE50002048B0F8800000F40040002843D0102073
:10FE6000E0700220A070607007202071701CC6B284
:10FE7000002520E01748B0F8800005F10F010122AD
:10FE80008A401040A8B1A91DC8B23D701149891C13
:10FE900031F81010C7F801100E49891C31F81020F4
:10FEA0003E3121F81020711DCEB27F1D4FF00108A8
:10FEB00000BF681CC5B2012DDCDB2670B8F1000F55
:10FEC00011D0301DC0B22123CDE90040024805E029
:10FED000F4340020A04300203A00002002880121D1
:10FEE0000846FEF7D6FCBDE8FC812DE9FC4106463C
:10FEF0000025FE4C671D1020E0700220A07060708D
:10FF000020716D1C3E706D1C2570F94846700068AC
:10FF100020F00100401CF6490860281D2123CDE98E
:10FF20000040F448028801210846FEF7B2FCBDE813
:10FF3000FC8110B50446EE484487007800F00100CB
:10FF400010B1EB48447002E02046FFF7CEFF10BD31
:10FF500010B50446E6484078A04206D1E44800685F
:10FF600020F00100E249086008E0E148007800F074
:10FF7000010018B1DE494878FFF7B7FF10BD7CB526
:10FF80000025DA4C661D1020E0700220A070607021
:10FF9000082020716D1CD648D0F8EC003060D448A1
:10FFA000D0F8E800706008352570281D2123CDE9C0
:10FFB0000040D048028801210846FEF76AFC7CBD5B
:10FFC0002DE9FC410026C94D6F1DC948B0F89800C5
:10FFD00060B31020E8700320A87000202871701C06
:10FFE000C6B2002412E0C248B0F898000121A14036
:10FFF000084048B13C70BE48883050F82400C7F82B
:020000040801F1
:1000000001007F1D701DC6B2601CC4B2042CEADB67
:100010002E70301DC0B2CDE90050B6480088401C9B
:1000200082B2212301210220FEF733FCBDE8FC81CE
:1000300010B5B1480068401CAF490860FFF7C2FD29
:10004000FFF7BEFFAC49086800EBD0714910A0EB88
:10005000410111B101290CD102E0FFF737FD08E0A1
:10006000FFF7FAFDFFF744FEFFF78EFEFFF7EAFE0B
:1000700000BF00BF9E48007800F0010018B19C4905
:100080004878FFF732FF10BD2DE9F04106460B46D8
:10009000002101209F1C01F1010C17F80CC07F5CAE
:1000A0004CEA0725891C9F1C01F1010C17F80CC0B4
:1000B0007F5C4CEA0724891C012E02D0022E1CD141
:1000C0001CE0294616E08A4FBF1C37F811704FEA32
:1000D000172C971C07F800C0854FBF1C17F811801C
:1000E000971C00F1010C07F80C80801C1F2900DB15
:1000F000B5E0491C2F198F42E5DCAEE0671C07EB29
:10010000D77CCCF34F040021A3E005EB410737B1C6
:10011000022F2AD0042F4ED0062F25D171E0744F24
:10012000D7F888703F0E02F1020C0CF80070704F87
:10013000D7F88870C7F30748971C00F1010C07F83F
:100140000C806B4FB7F88870C7F30728971C00F135
:10015000020C07F80C80664F97F88880971C00F116
:10016000030C07F80C80001D71E0614FD7F88C700C
:100170003F0E02F1020C0CF800705D4FD7F88C7046
:10018000C7F30748971C00F1010C07F80C80584F83
:10019000B7F88C70C7F30728971C00F1020C07F81A
:1001A0000C80534F97F88C80971C00F1030C07F8D4
:1001B0000C80001D4BE04E4FD7F890703F0E02F1BF
:1001C000020C0CF800704A4FD7F89070C7F307483C
:1001D000971C00F1010C07F80C80454FB7F89070A0
:1001E000C7F30728971C00F1020C07F80C80404F5A
:1001F00097F89080971C00F1030C07F80C80001D05
:1002000025E03B4FD7F894703F0E02F1020C0CF83A
:100210000070374FD7F89470C7F30748971C00F168
:10022000010C07F80C80324FB7F89470C7F3072819
:10023000971C00F1020C07F80C802D4F97F8948062
:10024000971C00F1030C07F80C80001D00BF00BFD5
:10025000491CA142FFF659AF00BF00BF00BF90701C
:10026000BDE8F0812DE9F04104460B460020012154
:100270009F1C00F1010C17F80CC03F5C4CEA0725ED
:10028000801C9F1C00F1010C17F80CC03F5C4CEA6D
:100290000726801C28463BE0012C16D1144F7E37E0
:1002A00037F810704FEA172C971C07F801C0104F51
:1002B0007E3717F81080971C01F1010C07F80C80AD
:1002C000891C042800DB27E020E001281CDA084F05
:1002D000983737F810704FEA172C971C07F801C0B1
:1002E000034F983717F81080971C07E0F43400206C
:1002F000A04300203A0000205000002001F1010C32
:1003000007F80C80891C00E006E000BF00BF401C1D
:10031000AF198742C0DC00BF9170BDE8F0812DE9C4
:10032000F05F83460D4616460024A81C611C415C04
:10033000A81C005D41EA0027A41CA81C611C415CAC
:10034000005D41EA002AA41C3C462CE0E01BC117DA
:1003500000EB5171C1F3C708E01BC11700EB5171ED
:10036000C910A0EBC10101F0FF09032C00DB1EE066
:10037000B9F1000F07D1E0B2FCF77AFE08F10101F4
:10038000B21C50540EE0E0B2FCF772FE00FA09F025
:1003900008F10101B21C515C0843C2B208F101002E
:1003A000B11C0A54641C07EB0A00A042CEDC00BF5B
:1003B000E11BC81DC11700EB5171C1F3C701B1703A
:1003C000BDE8F09F2DE9F04707460C46164600258C
:1003D000A01C691C415CA01C405D41EA0028AD1CCA
:1003E000A01C691C415C405D41EA0029AD1C012F45
:1003F0000DD1B8F1100F0ADAB9F1000F01D00122C6
:1004000000E00022114608F0FF0000F088FDA0780F
:10041000B070E178F1702179317161797171BDE865
:10042000F0872DE9F84F81460C4617460025A01CA1
:10043000691C415CA01C405D41EA0028AD1CA01C69
:10044000691C415C405D41EA00200090AD1C6D1CC0
:10045000B9F1010F2DD1464626E0A6EB0800C117E1
:1004600000EB5171C1F3C70AA6EB0800C11700EBFE
:100470005171C910A0EBC10101F0FF0B102E00DB80
:1004800016E005EB0A01A01C405C012101FA0BF10A
:10049000084020B1F0B2012100F041FD03E0F0B2CC
:1004A000002100F03CFD761C00984044B042D4DCB2
:1004B00000BFA078B870E178F9702179397161795D
:1004C0007971BDE8F88F2DE9F05F81460D4616463B
:1004D0000024A81C611C415CA81C005D41EA0027A7
:1004E000A41CA81C611C415C005D41EA002BA41CFB
:1004F000B9F1010F33D13C462CE0E01BC11700EBF2
:100500005171C1F3C708E01BC11700EB5171C9104D
:10051000A0EBC10101F0FF0A102C00DB1EE0BAF1D4
:10052000000F07D1E0B200F03AFD08F10101B21C62
:1005300050540EE0E0B200F032FD00FA0AF008F18B
:100540000101B21C515C0843C2B208F10100B11CA8
:100550000A54641C07EB0B00A042CEDC00BFE11B79
:10056000C81DC11700EB5171C1F3C701B170BDE8DF
:10057000F09F2DE9F04707460D4616460024A81CBB
:10058000611C415CA81C005D41EA002AA41CA81C57
:10059000611C415C005D41EA0028A41CA81C611C90
:1005A000415C005D41EA0029A41C012F1DD1BAF174
:1005B000000F1AD100F00AFD8246002413E001204A
:1005C000A04000EA080068B10120A04000EA09004C
:1005D00020B1E0B2012100F0A2FC03E0E0B2002172
:1005E00000F09DFC641C102CE9DBA878B070E97861
:1005F000F1702979317169797171A979B171E979EC
:10060000F171BDE8F0872DE9F05F81460C46174691
:100610000026A01C711C415CA01C805D41EA0025E5
:10062000B61CA01C711C415C805D41EA0028B61C10
:10063000A078B870E178F9702179397161797971B0
:10064000B9F1010F03D0B9F1020F2AD122E0042D34
:100650001FDAFA4820F81580022D02D0032D16D19A
:1006600000E000BF05F1080000F0FF0A4FEA182B78
:100670000021504600F053FC08F0FF01AA1ED0B242
:1006800000F0E0FC5946504600F049FC00E000BF95
:1006900000BF06E0012D03DAE8481A3020F8158083
:1006A00000BF00BFBDE8F09F2DE9FC5F82460C460D
:1006B00090460025A01C691C415CA01C405D41EADD
:1006C0000027AD1CA01C691C415C405D41EA002074
:1006D0000190AD1C6D1C002643E0A01C691C415C10
:1006E000405D41EA0029BAF1010F03D0BAF1020FCF
:1006F00033D129E0B819042825DAB919CF4820F8F0
:100700001190B819022802D003281AD100E000BFC6
:1007100007F10A003044801E00F0FF0B4FEA192059
:1007200000900021584600F0FAFB09F0FF01BA19C9
:10073000921ED0B200F086FC5846009900F0EFFB04
:1007400000E000BF00BF08E0B819012804DAB919B9
:10075000BA481A3020F8119000BF00BFAD1C701CC1
:1007600086B201988642B8DBA07888F80200E1786A
:1007700088F80310217988F80410617988F8051049
:10078000BDE8FC9F2DE9F84F80460E461746002431
:10079000B01C611C415CB01C005D41EA0025A41C3A
:1007A000B01C611C415C005D41EA0029A41CB01C26
:1007B000611C415C005D41EA002AA41CB8F1010FF4
:1007C00003D0B8F1020F72D146E0042D43DA0024C1
:1007D0001EE00120A04000EA0900C0B10120A040B5
:1007E00000EA0A0050B1954830F815000121A140F7
:1007F000084381B2914820F8151008E08F4830F87E
:1008000015000121A14088438C4921F81500641C82
:10081000102CDEDB022D02D0032D1AD100E000BF28
:1008200005F1080000F0FF0B844830F81500000ABD
:1008300000900021584600F072FB804A12F8151013
:10084000AA1ED0B200F0FEFB5846009900F067FBEC
:1008500000E000BF00BF2AE0012D27DA002423E0DA
:100860000120A04000EA0900E8B10120A04000EA10
:100870000A0060B171481A3030F815000121A1401A
:10088000084381B26D481A3020F815100BE06B4810
:100890001A3030F815100120A04021EA0000674905
:1008A0001A3121F81500641C102CD9DB00BF00BFE1
:1008B000B078B870F178F9703179397171797971EE
:1008C000B179B971F179F971BDE8F88F70B5064663
:1008D0000D469DB9002059497E39A1F87E000021BE
:1008E00056487E38A0F88010002404E0E0B20021D1
:1008F00000F015FB641C102CF8DB00E000BF00BF0B
:1009000070BD70B52DED0C8B9FED4D0AB0EE408A99
:100910004A487E3890F8DC0004281FDA00240AE0F8
:1009200046481E3000EBC40090ED000A30EE080A85
:10093000B0EE408A641C41487E3890F8DC00A0424A
:10094000EEDC3E487E3890F8DC0000EE100AB8EE8F
:10095000400AC8EE000AB0EE608A20E0002416E0EB
:1009600036497E3991F8DD10C91D081BC11700EB0F
:100970005171C910A0EBC10530481E3000EBC50015
:1009800090ED000A30EE080AB0EE408A641C042C98
:10099000E6DBB1EE000AC8EE000AB0EE608A274836
:1009A0007E3880ED398A014691F8DD10C91D081B9B
:1009B000C11700EB5171C910A0EBC10518EE100A68
:1009C0000CF02DFF41EC1A0B1C481E3000EBC5004B
:1009D00080880A2190FBF1F0C0F1190630460CF036
:1009E0000DFF41EC1D0B9FED170B53EC102B0CF082
:1009F00093FE41EC1C0B9FED150B53EC102B0CF0F0
:100A0000E4FD41EC1B0B53EC1A2B0CF085FE41EC82
:100A1000190B0CF017FF09497E39C1F8EC00BDEC49
:100A20000C8B70BDDFED060AB0EE600A03497E391B
:100A300091F8DC1004292BDA012015E01E44002077
:100A400000000000B81E85EB51B89E3F000000007A
:100A50000000F03FB84901EBC001D1ED000A70EE93
:100A6000800AB0EE600A401CB3499C3991F8DC1052
:100A70008142EFDCB0499C3991F8DC10491E00EE50
:100A8000901AF8EEE00A80EE201AB0EE410A1FE05C
:100A9000012015E0A84B9C3B93F8DD30DB1D191AB3
:100AA000CB1701EB5373DB10A1EBC302A24901EB9F
:100AB000C201D1ED000A70EE800AB0EE600A401C5F
:100AC0000428E7DBF0EE080A80EE201AB0EE410AB7
:100AD00099499C3981ED380A0B4693F8DD30DB1DCE
:100AE000191ACB1701EB5373DB10A1EBC302924928
:100AF0009C3981ED3A0A704710B52DED048BB0EEAC
:100B0000408A04468C489C3890F8DD109C3000EBFD
:100B1000C10080ED008A88489C3890F8DD109C3038
:100B200000EBC100848084499C3991F8DD10481C99
:100B3000C11700EB5171C910A0EBC1017E4A9C3A6C
:100B400082F8DD10104690F8DE0001280AD118EE78
:100B5000100A0CF064FE41EC190B53EC192B77A032
:100B60000DF00EF974489C3890F8DC00082808DA7B
:100B700071489C3890F8DC00401C6F499C3981F822
:100B8000DC006D489C3890F8DE00022817D118EE82
:100B9000100A0CF044FE41EC190B53EC192B6CA01D
:100BA0000DF0EEF864489C3890F8DC00082806DB6D
:100BB000002000F0EFFFFFF735FFFFF7E0F9BDEC95
:100BC000048B10BD10B5044620785B499C3981F830
:100BD000DE00084690F8DE00012802D0022807D186
:100BE00003E0012000F0D6FF03E0FFF78AFE00E0FB
:100BF00000BF00BF002050499C3981F8DC0081F81B
:100C0000DD0010BD00204C499C3948700846006842
:100C100020F001000860704730B50346881F464C3D
:100C2000143C54F82000401C8C1F434D143D45F8E3
:100C30002400002030BD40489C3890F8DF0020F0B0
:100C400002003D499C3981F8DF00704700203A4995
:100C50009C3991F8DF1001F0010101B107E036493C
:100C60009C3991F8DF1001F0020101B101207047B9
:100C70001CB5F02130489C380CF04BFC4FF400714F
:100C8000162007F01CFD0821162007F06FFD162026
:100C900007F0D1FDC4B20020AFF283010123024668
:100CA000CDE90010214607F0DEFD4FF4007117205A
:100CB00007F005FD0821172007F058FD172007F061
:100CC000BAFDC4B20020AFF2AF0101230246CDE964
:100CD0000010214607F0C7FD4FF40071182007F0FF
:100CE000EEFC0821182007F041FD182007F0A3FDB5
:100CF000C4B20020AFF2DF0101230246CDE90010AB
:100D0000214607F0B0FD4FF40071192007F0D7FC21
:100D10000821192007F02AFD192007F08CFDC4B224
:100D20000020AFF20B1101230246CDE9001021464D
:100D300007F099FD1CBD00003C440020544F4320A7
:100D400056616C75653A202566200D0A000000008A
:100D5000544F4320466C757368322056616C75653C
:100D60003A202566200D0A00AA49095C01F001011C
:100D700011B100F12001C8B27047A649095C01F029
:100D8000020111B1A0F12001C8B2704770B5002571
:100D9000FF227021A0480CF0B5FB2C461AE0002081
:100DA000C4EBC4019C4A5054601B801DC4EBC401B9
:100DB000114448700120C4EBC40111448870FF2025
:100DC000C4EBC4011144C870C4EBC40111444871A0
:100DD000601CC4B205F108008442E0DBC5B22C46B9
:100DE0001EE00120C4EBC4018B4A505404F10E00F4
:100DF000401BC4EBC401114448700120C4EBC40182
:100E000011448870E01D401BC4EBC4011144C8703C
:100E1000E01D401BC4EBC40111440871601CC4B246
:100E2000A81C8442DDDBC5B22C462AE00220C4EBBC
:100E3000C401794A5054601BC4EBC401114448708A
:100E40000020C4EBC40111448870E01C401BC4EBBB
:100E5000C4011144C87004F10900401BC4EBC40173
:100E600011440871601D401BC4EBC401114448715A
:100E700004F10B00401BC4EBC40111448871601CD9
:100E8000C4B2A81C8442D1DBC5B22C461EE00320AC
:100E9000C4EBC401604A5054A01C401BC4EBC40105
:100EA000114448700120C4EBC4011144887004F15E
:100EB0000A00401BC4EBC4011144C870E01C401B75
:100EC000C4EBC40111440871601CC4B2E81C844224
:100ED000DDDBC5B22C461EE00420C4EBC4014E4A43
:100EE0005054601B401DC4EBC401114448700120E4
:100EF000C4EBC4011144887004F10900401BC4EB29
:100F0000C4011144C870A01D401BC4EBC4011144AE
:100F10000871601CC4B2681C8442DDDB70BD70B512
:100F200004460D46C4EBC4023B4B1A4492780AB106
:100F30002A4603E00DB9012200E000221146C4EB6D
:100F4000C402354B1A445078FCF733F9C4EBC400A3
:100F50003149085C012806D0022807D0032803D0B5
:100F6000042804D101E000BF00BF00E000BF00BFC3
:100F700055B12A48B0F880000121A140084381B250
:100F80002648A0F8801009E02448B0F8801001201D
:100F9000A04021EA00002149A1F8800070BD70B591
:100FA0000446C4EBC4011C4A11444878FCF70AF912
:100FB0000546C4EBC40018490844807808B12846A7
:100FC00070BD0DB90120FBE70020F9E770B50025E1
:100FD00000241BE0C4EBC4010F4A11444878FCF71D
:100FE000F1F80646C4EBC4000B490844807808B108
:100FF000304603E00EB9012000E0002006461EB195
:101000000120A040284385B2601CC4B2102CE1DB53
:10101000284670BDCC01002090440020A043002051
:101020003049095C01F0010111B100F12001C8B2A1
:1010300070472C49095C01F0020111B1A0F12001B7
:10104000C8B2704770B504460D462749085D0021B7
:1010500007F070FB254800EBC400406801680020E1
:101060008847224800EBC40040680168284688474A
:101070001E4800F834501C49085D012107F05AFB56
:1010800070BD0146194810F83100704770B5202333
:1010900000221146104609F0A1F805461348002128
:1010A000016041608160C16000240FE00E49085D6D
:1010B00040F2012107F003FB0B49085D012107F015
:1010C00039FB0A4800EBC4004560641C022CEDDBD0
:1010D000002404E0E0B20021FFF7B4FF641C022CFE
:1010E000F8DB70BDCC01002044E70108004500207A
:1010F0002DE9FE4F0546894617461E46022F02DAA5
:10110000FF20BDE8FE8F2878412802D16878542856
:1011100001D0FF20F5E70020E855B81EC7B2AD1C8E
:101120002FB128780D2802D028780A280AD14F201C
:1011300089F800004B2089F801003078801C30705D
:101140000020DEE74FF008080FF2C82A47456ADBA7
:101150004246294650460CF01CFA002877D1A7EBEE
:101160000800C7B2454401AB02AA3D21284608F059
:10117000DCFA08B9FF20C4E7002409E104EB84008D
:10118000A74A02EB8000C16802980CF0DEF9002843
:101190006FD1019800783F286DD104EB8400A049FD
:1011A00001EB8000807A9F490978884250DC04EB8B
:1011B00084009B4901EB8000407A98BB04EB8400DB
:1011C0000B4603EB8000027A04EB840003EB800003
:1011D000416868460CF084F904EB8400904901EB07
:1011E0008000007A012802D19DF800000BE004EB9A
:1011F00084008B4901EB8000007A022802D1BDF8FF
:10120000000000E00098034604EB8400844901EBF1
:10121000800085A1C26848460CF0C2FD31780844C0
:10122000307024E000E0BEE004EB84007C4901EB78
:101230008000436804EB840001EB80007CA1C2685D
:1012400048460CF0ADFD3178084430700FE0A9E05D
:1012500004EB8400724901EB800077A1C268484624
:101260000CF09EFD317808443070002049E70020E2
:1012700047E78BE0FFE704EB8400694901EB80005E
:10128000007A012806D101980CF092F9C0B28DF8CD
:1012900000001AE004EB8400614901EB8000007A51
:1012A000022806D101980CF083F980B2ADF8000055
:1012B0000BE004EB84005A4901EB8000007A04281B
:1012C00003D101980CF074F9009004EB84005449A8
:1012D00001EB8000407A70B904EB8401504B03EBC2
:1012E00081010A7A04EB840103EB810148686946B5
:1012F0000CF0F6F812E001980CF020F904EB8401F0
:10130000474A02EB8101097A884207D804EB84013D
:1013100002EB8101486801990CF032F904EB84007A
:101320003F4901EB8000807A3E49097888421EDC03
:1013300004EB84023A4B03EB8202117A04EB840241
:1013400033F822006A46FDF741FC834604EB840033
:10135000334901EB8000006938B104EB84000A4690
:1013600002EB80000169684688475846C9E604EBED
:1013700084002B4901EB80002FA1C26848460CF085
:101380000FFD3178084430700020BAE6601CC4B20A
:1013900004EB8400224931F8200000287FF4EEAEEF
:1013A000FF20AEE600BF4FF005080FF2A40A474544
:1013B0002DDB4246294650460CF0EBF838BB17A00F
:1013C000029016A00190A7EB0800C7B245442C4636
:1013D0002621204608F039F920460CF0AFF828B154
:1013E000029420460CF0AAF8401C044420460CF05D
:1013F000A5F828B1019420460CF0A0F8401C044444
:1014000002A808F06BF901A808F068F900BFFF20F6
:1014100077E600002B434F4E4649473D0000000051
:1014200048E701085400002025733A2575000000A4
:1014300025733A2573000000636F6E666967202587
:10144000733A20756E617574686F72697A656400AD
:101450002B4C4F473D00000070B502460B46002064
:10146000002113E0555C00240DE085EA000606F03B
:10147000010626B14AF2010686EA600600E046103F
:1014800030466D10641C082CEFDB491C9942E9DBE7
:1014900070BD70B504460D4629462046FFF7DCFFB7
:1014A0000646300A6055681C265470BD10B50446C7
:1014B00004EB0411C1EBC411F94A02EB81004FF4B3
:1014C000C6710CF026F8002004EB0411C1EBC41126
:1014D000F34A02EB810181F88C0104EB0411C1EBAA
:1014E000C41102EB810181F89C0104EB0411C1EBF2
:1014F000C41102EB810181F8A801022C02D0052C55
:101500004CD125E0E74804EB0411C1EBC411E44AD7
:1015100002EB8101C1F89001272004EB0411C1EB1B
:10152000C41102EB8101C1F89401022004EB041103
:10153000C1EBC41102EB8101C1F89801602004EBFA
:101540000411C1EBC41102EB810181F8A80125E06F
:10155000D54804EB0411C1EBC411D14A02EB81015F
:10156000C1F89001472004EB0411C1EBC41102EB58
:101570008101C1F89401052004EB0411C1EBC411F1
:1015800002EB8101C1F89801612004EB0411C1EB69
:10159000C41102EB810181F8A80100BF00BF204601
:1015A000FEF790F94FF4165004EB0411C1EBC4118F
:1015B000BB4A02EB8101C1F89E01002104EB04103B
:1015C000C0EBC41002EB800080F8A21104EB041001
:1015D000C0EBC41002EB800080F8A31104EB0410F0
:1015E000C0EBC41002EB800080F8A41110BD2DE9FF
:1015F000F843054688462878A0F1C10606EB460068
:101600000D30C4B22879E97840EA0121A74820F8D2
:101610001410A879697940EA0122A448611C20F8D5
:101620001120287AE97940EA0122A048A11C20F87B
:1016300011209F48007830B3032E24D10020009061
:101640009A4830F81400000A8DF80300974810F803
:1016500014008DF802009548611C30F81100000A52
:101660008DF80100914810F811008DF800008F48A6
:10167000A11C30F81170DDED000AB0EE600A3846AA
:10168000FFF73AFA00BFBDE8F88310B5884C1C3468
:1016900094F8410101280EDB94F84101401E04EB4F
:1016A0000010406838B194F84101401E04EB00106E
:1016B00041680020884700F084F810BD70B50546E9
:1016C00004210A2007F080FC04463CB12646132082
:1016D000B070B560204607F095FC00BF70BD10B536
:1016E0000446AFF25900FFF7E9FF10BD1CB50446F0
:1016F00070480021AFF219032246CDE900102046C0
:1017000007F0EDFE1CBD10B5694C1C3494F8410186
:1017100001280EDB94F84101401E04EB00104068E4
:1017200038B194F84101401E04EB001041680020DC
:10173000884700F046F810BD10B50446AFF23900F6
:10174000FFF7BCFF10BDF8B504460D4616465AA07B
:10175000006800901DF8040032462946FDF786FC1B
:10176000F8BD7CB505460E4600242146641C53484E
:10177000455402222146641C4254C6F307222146E6
:10178000641C42542146641C465400222146641CB9
:10179000425406222146641C42542146FFF779FE3A
:1017A000A21C46490020FFF7CEFF42481830AFF296
:1017B000770300221146CDE90050962007F08FFEF6
:1017C0007CBD70B53A4C1C3494F8410194F840113A
:1017D00088420CD194F84101803084F84101D4F85A
:1017E000440118B10020D4F84411884770BD94F822
:1017F000410194F8401188421FDA94F8415194F85D
:101800004101401C84F8410104EB0510007810B13F
:1018100001280FD108E004EB0512D16804EB051292
:101820009068FFF79EFF06E004EB05118868FFF75C
:101830005DFF00E000BF00BFD8E700BFD6E770B58E
:1018400004460D460120FBF7EAF91A48183007F064
:1018500001FE2078C13805280DD2DFE800F003042E
