:020000040800F2
:1000000048770020A91F0108DDC20008DFC20008F0
:10001000E3C20008E7C20008EBC2000800000000CD
:10002000000000000000000000000000EFC2000817
:10003000F1C2000800000000BB6D0108F3C2000817
:10004000C31F0108C31F0108C31F0108C31F010804
:10005000C31F0108C31F01081DC800082DC80008E0
:100060003DC800084DC800085DC80008C31F01084E
:10007000C31F0108C31F0108C31F0108C31F0108D4
:10008000C31F0108C31F010871C90008D1C70008B8
:1000900081C70008A9C70008C31F01086DC8000870
:1000A000C31F0108C31F0108C31F0108F1C50008D1
:1000B00023C600088FC6000815C70008C31F010823
:1000C000C31F0108C31F0108C31F0108C31F010884
:1000D000C31F010847C5000867C5000881C500089F
:1000E000DDC80008C31F0108C31F0108C31F0108A2
:1000F000C31F0108C31F0108C31F0108C31F010854
:10010000C31F0108C31F0108C31F0108C31F010843
:100110009DC50008B9C50008C31F0108C31F010819
:100120008BC90008C31F0108C31F0108C31F0108B2
:10013000C31F0108C31F0108C31F0108C31F010813
:10014000C31F0108C31F0108C31F0108C31F010803
:10015000C31F0108C31F0108C31F0108D5C500083C
:10016000C31F0108C31F0108C31F0108C31F0108E3
:10017000C31F0108C31F0108C31F0108C31F0108D3
:10018000C31F0108C31F010851847A030A000945EF
:100190000102030406070809294DD951023FFD1841
:1001A0000A2D860108E38501089F041A77041ABF07
:1001B000042560ED0108121022B0222074024001D3
:1001C000A9241A64246A10242D040240029FD92411
:1001D0001A68246A202435080240042928A9241A10
:1001E0006C246A30241C0C02407911DA03241A7042
:1001F000246A40243510024010294CA9241A742482
:100200006A50241C140240B911DA05241A78246AB1
:1002100060243518024040021B066A08012A2801A2
:10022000790E7901CBA010017A040159113A4101EC
:100230000A11010149203A42010A110201291E0254
:100240002008E980E901091279297C590809127806
:10025000397C690991126422405A02049112401AB1
:0C02600004042A081CAA011831D2FF0077
:020000040800F2
:10C00000DFF80CD011F0F0FD004800474BC20008EB
:10C010004877002010B50FF0FFF810BD10B50DF0F7
:10C0200047F90DF085FA002404E0204603F0B0FB48
:10C03000601CC4B2062CF8DB10BD704710B506F0CA
:10C0400095FC02200DF0A6F90CF0FDFC01F04EF974
:10C050000EF016FB02F03EFE01F08CF801F04DF8F8
:10C0600000F0F4FD00F0BCFD00F026FE0CF011FD28
:10C07000FFF7E3FF04F06AFE04F0E8FF884800F0F1
:10C0800082FE01F0FCFC05F01EFD04F0E8FD0FF05F
:10C09000A9F84FF6FF734FF47A72022100200DF0D9
:10C0A000C6F84FF6FF730A22022101200DF0BFF8F7
:10C0B00010BD10B50446A07830B1012807D0122871
:10C0C0000AD013280CD103E0FFF7B8FF08E007E01F
:10C0D000204605F009FC03E0204602F070FC00BF9A
:10C0E00000BF002010BD01460020704710B56D480C
:10C0F0000068401C6B49086000F0F6FD02F054FD3A
:10C1000003F099FF10BD70B50546AC78052C10D230
:10C11000DFE804F0030B0A060E00FFF7E7FF11E06B
:10C12000002000F068FD0DE00CE000F0BDFF09E02C
:10C1300008E0052C05DB0D2C03DAA988204602F067
:10C140007DFB00BF00BF002070BD70B50446012517
:10C15000012000F062FD002053490870E078534947
:10C160000870534800684078092802D00D2808D18B
:10C1700003E00AF0D1FB054607E00AF038FC05466B
:10C1800003E00AF0ABFC054600BF00BF1DB1474805
:10C1900000780AF0BBFC002070BD10B50446207882
:10C1A000C01E092822D2DFE800F0051921210D1D4B
:10C1B000150911002046FFF7A6FF10BD2046FFF726
:10C1C00078FFFAE72046FFF78EFFF6E72046FFF7F5
:10C1D000BCFFF2E7204600F051FEEEE7204603F0F8
:10C1E00057FCEAE7204602F002FBE6E700BF00BF8B
:10C1F0000020E2E710B504462046FFF7CEFF10BD51
:10C2000010B500210A200CF0C5FE044624B1002020
:10C21000A07020460CF0DCFE10BD08B5AFF22B0379
:10C220004FF40062234903200CF016FF6A4622A156
:10C2300003200BF013FFFFF7E3FF05E06423002268
:10C24000114610460CF0BAF8F8E700B587B00AF0CE
:10C250007FFD0DF0C1FC00214FF0006005F0F1FE04
:10C260004FF4A06005F0B2FE0AF029FF0320002180
:10C270004FF40072134BCDE90132CDE903100620D3
:10C280000346114A009011480BF04AFD06AA10A17E
:10C2900006200BF0E3FE0BF019F8002007B000BDFC
:10C2A00040420F00000000206E0000206F000020C0
:10C2B00080EA0108180300204D61696E2D546173F6
:10C2C0006B00000018230020142B00201BC2000864
:10C2D000526F6F742D5461736B000000704700BF84
:10C2E000FEE700BFFEE700BFFEE700BFFEE77047C6
:10C2F000704710B50AF040FD0446FE48007820B1B2
:10C30000FD480078401CFC49087020460AF038FDC2
:10C310000AF0F4FF0AF00AFF10BD38B5044604EB3A
:10C320000411C1EBC411F54A02EB8101D1F890016F
:10C3300040F2255106F060FD90B104EB0411C1EB11
:10C34000C411EE4A02EB8101D1F8900106F092FC93
:10C35000C0B20090E0B20122694602F0DEFF00BFE9
:10C3600004EB0411C1EBC411E44A02EB8101D1F8E2
:10C37000900140F2277106F03FFD002820D004EB29
:10C380000410C0EBC410DD4901EB8000B0F880015F
:10C3900004EB0411C1EBC411D84A02EB8101B1F8DE
:10C3A000821188420DD104EB0411C1EBC41102EBE0
:10C3B00081010022D1F8900140F2277106F0E1FCE2
:10C3C0005EE004EB0412C2EBC412CC4B03EB82021E
:10C3D00004EB0413C3EBC413C84D05EB8303B3F89C
:10C3E0008231D15C04EB0412C2EBC4122B4603EB86
:10C3F0008202D2F8900106F039FC04EB0411C1EB83
:10C40000C4112A4602EB8101B1F88211481CC11700
:10C4100000EB5161C911A0EBC11104EB0412C2EB96
:10C42000C4122B4603EB8202A2F8821104EB041023
:10C43000C0EBC410194601EB800090F89C01F8B9DC
:10C4400004EB0410C0EBC41001EB8000B0F88001D5
:10C4500004EB0411C1EBC4111A4602EB8101B1F8DF
:10C46000821188420CD104EB0411C1EBC41102EB20
:10C4700081010122D1F8900140F2266106F081FC91
:10C4800004EB0410C0EBC4109C4901EB800090F851
:10C490009C0198BB04EB0411C1EBC411974A02EB59
:10C4A0008101D1F8900140F2266106F0A5FC28B385
:10C4B00004EB0410C0EBC410904901EB8000B0F80D
:10C4C000800104EB0411C1EBC4118C4A02EB810121
:10C4D000B1F88211884211D1E0B2002102F091FD41
:10C4E00004EB0411C1EBC411844A02EB8101002268
:10C4F000D1F8900140F2266106F043FC38BD38B512
:10C50000044604EB0411C1EBC4117C4A02EB810127
:10C51000D1F8900140F2255106F06EFC90B104EB89
:10C520000411C1EBC411754A02EB8101D1F89001ED
:10C5300006F0A0FBC0B20090E0B20122694602F012
:10C54000ECFE00BF38BD10B540F225516C4806F036
:10C5500053FC38B16A4806F08DFBC4B2204600F0A7
:10C56000FDFE00BF10BD10B5644890F859030128C6
:10C5700002D1FFF7C4FF02E00120FFF7CEFE10BD9D
:10C5800010B55E4890F81505012803D10220FFF789
:10C59000B6FF02E00220FFF7C0FE10BD10B55748FD
:10C5A00090F8D106012803D10320FFF7A8FF02E08D
:10C5B0000320FFF7B2FE10BD10B5504890F88D086B
:10C5C000012803D10420FFF79AFF02E00420FFF7BF
:10C5D000A4FE10BD10B5494890F8490A012803D1BE
:10C5E0000520FFF78CFF02E00520FFF796FE10BD47
:10C5F00010B50221434809F0D0FD88B1022141481D
:10C6000009F0DCFD3F4809F065FD84B204F57A715C
:10C610003C4809F0F8FA022103200EF05FFD00BF4C
:10C6200010BD10B50121880709F0B7FD38B101210F
:10C63000880709F0C3FD012100200EF04FFD022103
:10C64000480709F0AAFD38B10221480709F0B6FDF4
:10C65000022100200EF042FD0421080709F09DFD93
:10C6600038B10421080709F0A9FD042100200EF0CB
:10C6700035FD0821C80609F090FD38B10821C8062B
:10C6800009F09CFD082100200EF028FD10BD10B51A
:10C6900001211D4809F081FD38B101211A4809F036
:10C6A0008DFD012108460EF019FD0221164809F002
:10C6B00074FD38B10221144809F080FD02210120E7
:10C6C0000EF00CFD0421104809F067FD38B104217B
:10C6D0000D4809F073FD042101200EF0FFFC082134
:10C6E000094809F05AFDA0B10821074809F066FD84
:10C6F00008210BE08D000020800000203839002048
:10C7000000100140000001400004004001200EF034
:10C71000E5FC10BD10B50121A94809F03EFD38B176
:10C720000121A74809F04AFD012102200EF0D6FCA4
:10C730000221A34809F031FD38B10221A04809F0D7
:10C740003DFD022108460EF0C9FC04219C4809F079
:10C7500024FD38B104219A4809F030FD042102205B
:10C760000EF0BCFC0821964809F017FD38B10821ED
:10C77000934809F023FD082102200EF0AFFC10BD04
:10C7800010B5142108200CF005FC04465CB1002013
:10C790006070A07004F1080200218A4807F035F8A3
:10C7A00020460CF015FC10BD10B5142108200CF02B
:10C7B000F1FB04465CB100206070A07004F1080237
:10C7C0000121804807F021F820460CF001FC10BD43
:10C7D00010B501217B4807F09AF9012805D1012104
:10C7E000784807F02EFA00F0CCFE0121754807F0DA
:10C7F0008EF9012805D10121724807F022FA00F0D4
:10C80000C0FE01216F4807F082F9012805D10121FE
:10C810006C4807F016FA00F0B4FE10BD10B5012008
:10C820000AF019F800200CF0BDF810BD10B5022078
:10C830000AF011F801200CF0B5F810BD10B5042075
:10C840000AF009F802200CF0ADF810BD10B5082070
:10C850000AF001F803200CF0A5F810BD10B5102067
:10C8600009F0F9FF04200CF09DF810BD10B5202050
:10C8700009F0E6FF28B1202009F0EDFF05200CF0BB
:10C8800091F8402009F0DCFF28B1402009F0E3FFD7
:10C8900006200CF087F8802009F0D2FF28B1802014
:10C8A00009F0D9FF07200CF07DF84FF4807009F0F3
:10C8B000C7FF30B14FF4807009F0CDFF08200CF0B5
:10C8C00071F84FF4007009F0BBFF30B14FF4007005
:10C8D00009F0C1FF09200CF065F810BD10B54FF448
:10C8E000806009F0ADFF30B14FF4806009F0B3FF14
:10C8F0000A200CF057F84FF4006009F0A1FF30B1A6
:10C900004FF4006009F0A7FF0B200CF04BF84FF438
:10C91000805009F095FF30B14FF4805009F09BFF33
:10C920000C200CF03FF84FF4005009F089FF30B1B3
:10C930004FF4005009F08FFF0D200CF033F84FF446
:10C94000804009F07DFF30B14FF4804009F083FF53
:10C950000E200CF027F84FF4004009F071FF30B1C1
:10C960004FF4004009F077FF0F200CF01BF810BDCA
:10C9700010B540F20521144806F0A8FC20B140F2A1
:10C980000521114806F0B5FC10BD10B50F4910483F
:10C9900009F064FE00210C4806F0CEFA00210C4894
:10C9A00009F0E4FD00F02FFA002109200CF0F2FA62
:10C9B000044624B10020E07020460CF009FB10BDB5
:10C9C00000080040006400400020014020000010EA
:10C9D000106402400CB5002001900090754800687A
:10C9E00040F480307349086000BF7248006800F46A
:10C9F000003000900198401C0190009818B90198EF
:10CA0000B0F5A04FF1D16B48006810F4003F02D0A0
:10CA10000120009001E0002000900098012845D1FD
:10CA200064484030006840F08050624940310860FE
:10CA30006148006840F440405F4908605D48083044
:10CA400000685C49083108600846006840F400400E
:10CA500008600846006840F4A05008605748091F65
:10CA60000860081F006840F08070091F086000BF60
:10CA70005048006810F0007FFAD040F2057050492D
:10CA800008604C480830006820F00300494908312C
:10CA900008600846006840F00200086000BF454892
:10CAA0000830006800F00C000828F8D10CBD10B563
:10CAB0004448006840F47000424908603D480068FE
:10CAC00040F001003B49086000203A490831086005
:10CAD000384800683C490840364908603B48091D11
:10CAE0000860081F006820F48020091F08600020EB
:10CAF00030490C310860FFF76DFF4FF0006031499D
:10CB00008039086010BD70B5002000220223002487
:10CB10000221284D08352D6805F00C0020B10428AD
:10CB200006D0082834D107E0294D2A4E356033E07D
:10CB3000294D284E35602FE01E4D2D1D2D68C5F363
:10CB400080541C4D2D1D2D6805F03F0154B1224D20
:10CB5000B5FBF1F5174E361D3668C6F3881605FB92
:10CB600006F209E01A4DB5FBF1F5124E361D366896
:10CB7000C6F3881605FB06F20E4D2D1D2D68C5F374
:10CB800001456D1C6B00B2FBF3F5124E356003E0FE
:10CB90000F4D104E356000BF00BF064D08352D68A3
:10CBA000C5F303150D4E705D0A4D2D68C540094E45
:10CBB000356070BD003802400070004019544007D5
:10CBC000003C024088ED00E0FFFFF6FE103000243C
:10CBD0000024F4000400002040787D0108000020BB
:10CBE00010B540F201210E200BF04FFD01210E2067
:10CBF0000BF086FD10BD10B5044624B100210E20B7
:10CC00000BF07EFD03E001210E200BF079FD10BD3D
:10CC100010B50E200BF083FD10BD10B504461CB9F5
:10CC20000020FFF7E8FF10BD0120FFF7E4FF04EB51
:10CC3000C40000EB04104FF6FF7101EA80020023EC
:10CC4000012103200CF0F3FA00BFECE710B540F22D
:10CC5000012158200BF019FD002158200BF050FD48
:10CC600010BD10B5044624B1012158200BF048FD39
:10CC700003E0002158200BF043FD10BD10B55820F3
:10CC80000BF04DFD10BD10B504461CB90020FFF798
:10CC9000E8FF10BD0120FFF7E4FF04EBC40000EB48
:10CCA00004104FF6FF7101EA8002002301210220E7
:10CCB0000CF0BDFA00BFECE710B540F201210D20E9
:10CCC0000BF0E3FC01210D200BF01AFD10BD10B597
:10CCD000044624B101210D200BF012FD03E00021D8
:10CCE0000D200BF00DFD10BD10B50D200BF017FD44
:10CCF00010BD000008B538208DF800000F208DF819
:10CD0000010000208DF8020001208DF80300684624
:10CD100005F061F912208DF800000F208DF8010058
:10CD200002208DF8020001208DF80300684605F00E
:10CD300052F908BD2DE9F04105460E4617466B4CE9
:10CD4000D02060606A48E060206840F00100206008
:10CD50000121684806F0F0F8664806F089F90020DD
:10CD6000BDE8F08170B504466348B0FBF4F5294690
:10CD700000200DF0C1FF0023AFF247020121184649
:10CD80000EF060F970BD1CB504460121072005F0C6
:10CD9000B3FC0121080205F009FD684605F056FACA
:10CDA00003208DF8040000208DF80500FF2000907E
:10CDB0006946524805F002FA03208DF8040000206D
:10CDC0008DF805000320009069464D4805F0F6F9FE
:10CDD00003208DF8040000208DF805000720009046
:10CDE0006946484805F0EAF9FFF784FF01230D2260
:10CDF000D0213F480CF016FE3E4806F039F9204697
:10CE0000FFF7B0FF1CBD0020002100BF04E000229E
:10CE10003D4B43F82020401C0D28F8D3002015E09E
:10CE2000002110E000EB800202EBC002304B03EB6C
:10CE3000420232F81120344B53F821301A44324B5D
:10CE400043F82120491C0D29ECD3401C1028E7D3BE
:10CE5000002007E02C4A52F8202012092A4B43F800
:10CE60002020401C0D28F5D3704701460D2901DB19
:10CE700000207047244850F82100FAE730B50446F6
:10CE8000002321E0C3EBC30020494218D0780D28CD
:10CE90000ADA10791F2807DAD078FFF7E6FF81B2A7
:10CEA00015791B4820F8151050790D280ADA907969
:10CEB0001F2807DA5079FFF7D8FF81B29579144817
:10CEC00020F81510581CC3B2102BDBDB002308E040
:10CED0001846FFF7CAFF81B20D4820F81310581CFE
:10CEE000C3B2032BF4DB002030BD0000106402400D
:10CEF000182B00200020014040420F00000002409B
:10CF00000004024000080240B82C00209044002099
:10CF1000A243002010B58B4805F0BBF9C0F3820492
:10CF2000204610BD002006E0FF21874A02EB4002A8
:10CF30005170411CC8B20328F6DB704700200EE098
:10CF4000814B03EB40010A78002A06DD531EDBB259
:10CF50001A460B700AB9FF234B70411CC8B2032854
:10CF6000EEDB70470246002110E0774800EB4100FD
:10CF70004078904208D1744810F81100022801DA74
:10CF8000012070470020FCE7481CC1B20329ECDBFC
:10CF9000002111E06C4800EB41004078FF2809D1E6
:10CFA000694800EB410042700320674B03F8110011
:10CFB0000020E6E7481CC1B20329EBDB0020E0E7D4
:10CFC00070B50125012061490880FFF7A3FF604982
:10CFD000088060480088604908805D4800780978CA
:10CFE000484000F007005D490880002428E05B48C5
:10CFF000008856490988084218D02046FFF7B2FF3A
:10D00000A0B15348008851490988084207D05248C6
:10D0100000884E49098808434F49088006E04E4879
:10D0200000884A49098888434B4908804748008856
:10D030004FF6FF7101EA400044490880601CC4B209
:10D04000032CD4DBFFF77AFF434800884149098865
:10D05000884201D1002507E03F4800883D4908800B
:10D060003E4800883E490880284670BD01460120A0
:10D070008840394B1B8800EA03020AB1012070473F
:10D080000020FCE730B50025002409E02046FFF72A
:10D09000EDFF18B10120A040284385B2601CC4B246
:10D0A000032CF3DB284630BD10B5FFF789FF00B92C
:10D0B00010BD2B48007810F0070F05D0FFF7E2FFF6
:10D0C000C4B2204602F032FF00BFF1E74FF6FF7016
:10D0D000204908802349088000201D4908801E49F6
:10D0E00008801E4908801E490880012017490880D1
:10D0F000704700B5FFF7EAFF00BD10B5FFF7E6FF88
:10D10000FFF710FF0121080705F03FFB012007F0A2
:10D1100040F9002005F08DF9002007F03AF90121CF
:10D12000880305F043FB002405E00F49085D0F4923
:10D130000BF0ABFA641C032CF7DBFFF7A3FF0C49E1
:10D14000488710BD0018024026000020240000205F
:10D150001C0000201A0000201E00002020000020DB
:10D160002200002018000020F0E901080002000160
:10D17000A043002010B5002416E04249085D40F2AB
:10D1800001210BF082FA404A115D3E4A105D0BF01E
:10D19000B7FA3E4901EB4410202110F0A0F93B49B9
:10D1A00001EB44110C70641C102CE6DB10BD70B553
:10D1B00004460D463349085D29460BF0A1FA70BDBF
:10D1C00010B504462F49085D0BF08BFAC0B210BDB4
:10D1D00010B504462B49085D0BF0A1FA10BD70B5DF
:10D1E0000446254628780021FFF7E1FFE86908B1E9
:10D1F000E869804770BD7CB504460D461646234855
:10D2000000EB4410C66101212046FFF7D0FF1F4804
:10D2100000EB4410001D1D4901EB4411AFF2410326
:10D220002A46CDE90010002128460CF03EF97CBDCD
:10D2300070B50025002409E02046FFF7C1FF18B1B2
:10D240000120A040284385B2601CC4B2102CF3DB3F
:10D25000284670BD10B5002405E000212046FFF7E8
:10D26000A6FF601CC4B2102CF7DB10BD10B5002463
:10D2700005E001212046FFF79AFF601CC4B2102C84
:10D28000F7DB10BDF3E9010803EA0108EC2C0020EC
:10D2900070B504460D46E1B2054805F0E7FC00BF55
:10D2A0004021034805F092FD0028F9D0204670BDCA
:10D2B0000010014070B505460C4614F0070F02D06F
:10D2C000002009F04DFC14F0100F0ED06A480078D1
:10D2D00010F0010F02D00DF023FF06E06648007841
:10D2E00010F0020F01D00DF01BFF70BD00B585B02E
:10D2F0004FF4E13000900020ADF80400ADF80600D6
:10D30000ADF80800ADF80C000C20ADF80A00694635
:10D3100000200DF055FA25208DF810000F208DF813
:10D32000110000208DF8120001208DF8130004A8D0
:10D3300004F051FE012240F22551504805F021FD34
:10D340004FF402714E4810F0CAF8AFF297004C4902
:10D35000C1F8040209F0DCFC05B000BD10B50446BC
:10D36000474890F8001290F80002401C444A82F8A6
:10D370000002104644540421D0F8042200209047B3
:10D3800010BD10B5044621463C4805F06FFC00BFB7
:10D3900040213A4805F01AFD0028F9D010BD70B5BB
:10D3A00005460E46002404E0285DFFF7EAFF601CF6
:10D3B000C4B2B442F8DB32481021D0F80422002075
:10D3C000904770BD70B505460E461446BF2C14DC60
:10D3D0002C4909680C7009202A49096848702948B5
:10D3E000006885702246314626480068C01C10F04F
:10D3F0005DF82548007809F089FB70BD70B50446DA
:10D400000D46164604F14001C8B232462946FFF7E0
:10D41000D9FF70BD70B505460E46144625B9E1B278
:10D420003046FFF7BCFF01E0002070BD00BF204682
:10D43000FBE730B50346EBB9114890F80002104CF9
:10D4400094F80142A04213D00D4890F801020C4C10
:10D45000205C087094F80142601CC41700EB14644F
:10D460002412A0EB0424064D85F80142012030BDB2
:10D470000020FCE70020FAE76D00002000100140CA
:10D48000EC2E002084EA01086F000020002111E04A
:10D4900001208840FE4A1278104200D008E00120A6
:10D4A0008840FB4A12781043F94A107008467047CA
:10D4B000481CC1B20829EBDB0820F8E7082806DA87
:10D4C00001218140F24A12788A43F1490A7070477B
:10D4D000F0480078F04A1278904201D10820704755
:10D4E000EE48EC4A1278815CEA4A1278501CC21766
:10D4F00000EB5272D210A0EBC202E64B1A70084643
:10D50000EDE7E5480078411CC81701EB5070C010EA
:10D51000A1EBC000DF4A1278904201D10120704790
:10D520000020FCE7DC480078DA490978884201D11C
:10D53000012070470020FCE710B504460DF0F0FD17
:10D5400010BD7CB504460D46D548007810F0010F9B
:10D5500004D1D348007810F0020F11D004EB44003E
:10D5600000EBC400CF4901EBC00028300021AFF22E
:10D5700037036422CDE900104FF4FA700BF095FFE9
:10D580007CBD7FB5002609F0F7FB0646FFF7CAFF12
:10D59000002877D1C148BF490978445C04EB4400B6
:10D5A000C14901EBC0004088082801DB082505E0DF
:10D5B00004EB4400BC4901EBC00085788DF80450B1
:10D5C00004EB4400B84901EBC000808A04EB44013D
:10D5D000B54A02EBC101498A40EA812040F000408F
:10D5E000009004EB440002EBC0002A4681680DF174
:10D5F00005000FF05BFF68460CF00CFCF0B304EB89
:10D600004400A94901EBC0004088401B04EB4401E1
:10D61000A54A02EBC101488004EB4400114601EB2E
:10D62000C0004088D0B904EB440102EBC101486856
:10D630000BF0BEFBFFF74CFF2046FFF73FFF04EB6C
:10D640004402994B03EBC20202F10D0104EB4402C8
:10D6500003EBC202D07BFFF774FF0CE004EB440045
:10D66000914901EBC0008068284404EB44018E4AD4
:10D6700002EBC101886001208C4901E001E001E07A
:10D6800008700FE00020894908708949087000225D
:10D690000121884806F0D4F98748006810B186480F
:10D6A00000688047304609F06BFB7FBD10B504462B
:10D6B00079490978481CC11700EB5171C910A0EBDA
:10D6C000C101744A1278914200D110BD7348724969
:10D6D0000978445470490978481CC11700EB51710E
:10D6E000C910A0EBC1016C4A11707048007808B9EC
:10D6F000FFF747FF00BFE8E700BF70490978481C03
:10D70000C11700EB5171C910A0EBC1016B4A117038
:10D7100000BF00BF704710B5002413E004EB4401C4
:10D7200001EBC4015F4A02EBC10058210FF0D7FEA4
:10D7300004EB440000EBC4005A4901EBC000047143
:10D74000601CC4B2082CE9DB10BD00201BE00228DD
:10D750000AD05B49098800EB400202EBC002514B42
:10D7600003EBC202D1800BE055490988491C00EB4C
:10D77000400202EBC0024B4B03EBC202D18000BF60
:10D7800000BF411CC8B20828E1DB7047002012E04E
:10D7900000214C4A02EB001211804A4A02EB0012AF
:10D7A0005180484A02EB00125160464A02EB0012D7
:10D7B0009160411CC8B20828EADB0021344A11708C
:10D7C000354A1170334A1170384A1170384A117055
:10D7D00070472DE9F04106460F4608210A200BF05C
:10D7E000D9FB044644B125461220A870AE60EF6014
:10D7F00020460BF0EDFB00BFBDE8F08130B587B0EF
:10D800002C4805F07BFD04A805F09CFE00208DF857
:10D81000160001208DF8170000208DF818008DF8F3
:10D8200019008DF81A0001208DF81B0000208DF8DA
:10D8300012008DF8130003208DF8140002208DF8DB
:10D8400015002148006840092049B0FBF1F080B282
:10D85000ADF8100004A80CF02BFA41F6FF7418483C
:10D86000008820F00100C0F30900042101EBC0058D
:10D8700000208DF80A008DF80B0001208DF80C00B7
:10D880004FF6FF7000EA1540ADF8000020E0000000
:10D890002C0000202E0000202D000020360000204B
:10D8A0006D000020F4300020343400202F000020D0
:10D8B0003000002000640040400000203E000020B6
:10D8C00032000020B43300200400002048E80100AA
:10D8D000ADF802504FF6FF7000EA1440ADF80400B6
:10D8E000ADF806400020ADF8080001208DF80D00CD
:10D8F000684605F0A6FD01208DF80A0000208DF88D
:10D900000B0001208DF80C004FF6FF7000EA154067
:10D91000ADF80000ADF802504FF6FF7000EA144079
:10D92000ADF80400ADF806400120ADF808008DF810
:10D930000D00684605F085FD00BFFD48008820F019
:10D940000100401CC0F30900042101EBC0050220C6
:10D950008DF80A0000208DF80B0001208DF80C00D6
:10D960004FF6FF7000EA1540ADF80000ADF8025028
:10D970004FF6FF7000EA1440ADF80400ADF8064021
:10D980000020ADF8080001208DF80D00684605F074
:10D9900058FD03208DF80A0000208DF80B000120AF
:10D9A0008DF80C004FF6FF7000EA1540ADF800004E
:10D9B000ADF802504FF6FF7000EA1440ADF80400D5
:10D9C000ADF806400120ADF808008DF80D0068465E
:10D9D00005F037FDE51E04208DF80A0000208DF8C3
:10D9E0000B0001208DF80C004FF6FF7000EA154087
:10D9F000ADF80000ADF802504FF6FF7000EA144099
:10DA0000ADF80400ADF806400020ADF80800012094
:10DA10008DF80D00684605F014FD05208DF80A000C
:10DA200000208DF80B0001208DF80C004FF6FF70E0
:10DA300000EA1540ADF80000ADF802504FF6FF7057
:10DA400000EA1440ADF80400ADF806400120ADF83E
:10DA500008008DF80D00684605F0F3FC0122022154
:10DA6000B44805F0EDFF01221021B24805F0E8FFAF
:10DA700000220121AF4805F0E3FF07B030BD10B52B
:10DA8000AB4A022120200CF05FFE18B140F2FF30BB
:10DA9000A7490880A6480088022807D00220A44988
:10DAA00008800A460221202001F090F80020A249B7
:10DAB0000870FFF730FEFFF748FEFFF767FEFFF73D
:10DAC0009DFE00209D49086010BD70B5002509F03D
:10DAD00053F9054600BFFFF7FBFC0446082C0ADAA1
:10DAE00004EB4401964A02EBC10148680BF060F96F
:10DAF0002046FFF7E3FC082CEDDB0020914908707D
:10DB000091490870914908709149087091490870CD
:10DB1000284609F035F970BD10B58A48007810B96B
:10DB20008B48007860B18B480078401C89490870A8
:10DB300008460078B42803DBFFF7C7FFFFF75EFE57
:10DB4000FFF7DAFD10BD2DE9F05F814688464FF002
:10DB5000000A814800680078C01CC5B2D346C8F3EB
:10DB60000900A0F54071FF3902D15846BDE8F09F89
:10DB7000002606E078480068805D80EA0A0A701C8A
:10DB8000C6B2AE42F6DB7448006800F805A0FE207D
:10DB90007149096801F8010CA81C0BF0C4F807468C
:10DBA0000FB95846E2E7FFF771FC0446082C04DB86
:10DBB00038460BF0FDF85846D8E704EB44006049BE
:10DBC00001EBC000476004EB440001EBC00087603C
:10DBD000002004EB44015A4A02EBC101C873A81C9F
:10DBE00004EB440122F8310004EB4400114631F803
:10DBF000300004EB440102EBC1014880002004EB3B
:10DC0000440102EBC101087404EB4400114601EB2E
:10DC1000C000A0F8128004EB440001EBC000A0F8A3
:10DC200014904D480068407804EB440102EBC101B8
:10DC3000487349480068817804EB440002EBC00057
:10DC4000817345480068411EAA1C38460FF02EFC1F
:10DC50002046FFF72BFD012088E72DE9F04106461D
:10DC60000C4690461F46032E26D0022E03D1304884
:10DC70000088401C01E02E48008885B236480068C4
:10DC8000077004203449096848703348006884707C
:10DC90003A46414630480068C01C0FF007FC06EBCE
:10DCA000460101EBC6012D4A02EBC1014889294614
:10DCB000FFF749FFBDE8F0810325F81C26490968F4
:10DCC0000870092024490968487023480068847056
:10DCD000022228466D1C204909680A540022284661
:10DCE0006D1C1D4909680A5428466D1C1A490968AB
:10DCF0000A54252C0FD028466D1C174909680C546E
:10DD00002120154909688870134800680078401C74
:10DD10001149096808701049096848193A4641468E
:10DD20000FF0C4FB03F084FF00BF00BF0020C1E779
:10DD300032000020006400403E000020400000202F
:10DD4000343400202C0000202E0000202D00002064
:10DD50002F0000203000002084EA0108F430002069
:10DD60002DE9F04180460C46FD4D27462E46387879
:10DD700030707878707032463946404602F078FA52
:10DD8000B078C01CC3B23246A8214046FFF765FFF9
:10DD90000020BDE8F081F0B585B007460C46254669
:10DDA0006E4628783070687870703246294638465A
:10DDB00002F07DFC06233246A8213846FFF74DFFCE
:10DDC000002005B0F0BDF0B585B007460C462546ED
:10DDD0006E4628783070687870703246294638462A
:10DDE00002F014FC06233246A8213846FFF735FF1F
:10DDF000002005B0F0BD2DE9F04180460C46D84D1D
:10DE000026462F4630783870707878703A4631461A
:10DE1000404602F0BCFC08233A46A8214046FFF7E2
:10DE20001CFF0020BDE8F0812DE9F04180460C4642
:10DE3000CB4D26462F4630783870707878703A4649
:10DE40003146404602F098FB08233A46A821404656
:10DE5000FFF703FF0020BDE8F0812DE9F041804687
:10DE60000C46BF4D26462F46307838707078787053
:10DE70003A463146404602F0D7FA06233A46A821F0
:10DE80004046FFF7EAFE0020BDE8F0812DE9F041B1
:10DE900080460C46B24D26462F4630783870707852
:10DEA00078703A463146404602F08FFA06233A46E9
:10DEB000A8214046FFF7D1FE0020BDE8F0812DE902
:10DEC000F04180460C46A64D27462E4638783070E5
:10DED0007878707032463946404602F0F7FAB078EA
:10DEE000C01CC3B23246A8214046FFF7B6FE002050
:10DEF000BDE8F0812DE9F04180460C46984D27465B
:10DF00002E46387830707878707032463946404600
:10DF100002F008FAB078C01CC3B23246A8214046CD
:10DF2000FFF79BFE0020BDE8F0812DE9F04180461F
:10DF30000C468B4D27462E463878307078787070B6
:10DF400032463946404602F0A5F8B078C01CC3B24C
:10DF50003246A8214046FFF780FE0020BDE8F08150
:10DF600038B505467F480068C41C207805EB45019C
:10DF700001EBC5017C4A02EBC1010873607805EB37
:10DF8000450101EBC50102EBC10148736078062829
:10DF900032D005DC3FD2DFE800F03E1611390C1B11
:10DFA0000F281AD010282CD080281BD0812832D1DD
:10DFB0001DE021462846FFF7B8FF36E021462846F7
:10DFC000FFF798FF31E021462846FFF778FF2CE065
:10DFD00021462846FFF75AFF27E021462846FFF74B
:10DFE0003CFF22E021462846FFF71EFF1DE02146A8
:10DFF0002846FFF700FF18E021462846FFF7E3FE1A
:10E0000013E021462846FFF7C6FE0EE021462846CB
:10E01000FFF7A6FE09E0607854A340F2815259A1AF
:10E02000009004200BF096F900BF00BF002038BD1F
:10E030002DE9FF4707460D462E466C4604F10508BC
:10E0400030682060E07840F08000E0703079207126
:10E0500002202070002088F80000307928B906F1ED
:10E060000509484602F0ACFD00E000BF00BF207883
:10E07000001DC3B2224621213846FFF7EEFD0020E5
:10E0800004B0BDE8F0872DE9F04107460C4625466F
:10E090002879022804D16E1D307801F056FF00E087
:10E0A00000BF00BF0020BDE8F08170B504460D46FA
:10E0B00004EB440000EBC4002B4951F8300020F081
:10E0C000010004EB440101EBC401274A42F831008E
:10E0D00004EB440000EBC400114651F8300020F07E
:10E0E000080004EB440101EBC40142F831000020B8
:10E0F00004EB440101EBC40102EBC1010872FEF71D
:10E10000F8FF02F07BFD002070BD10B500EB40026F
:10E1100002EBC002144B53F8322061F3000200EB13
:10E12000400303EBC003104C44F8332010BD10B57E
:10E13000044604EB440000EBC4000B4951F83000E6
:10E1400020F00200801C04EB440101EBC401064AEC
:10E1500042F8310001212046FFF7D7FF10BD000033
:10E16000F434002080EA0108F4300020756E6B6EF4
:10E170006F77206D6F6462757320636F646520250F
:10E18000780D0A0043616E436D642E630000000049
:10E190007CB50446E5B2C4F3072601208DF80000E3
:10E1A00081208DF803008DF8016002208DF80200B7
:10E1B00005236A4621212846FFF74FFD7CBD10B597
:10E1C00004462146AFF23700FFF703FB10BD7CB5D4
:10E1D00005462C462078C0F34000B0B12078C0F34B
:10E1E0004000401E216860F3410121602078C0F3A7
:10E1F000400050B104F11000CDE9004062881046A3
:10E20000F94B00210BF051F97CBD206820F008008B
:10E21000206020790021FFF778FF2079002102F0AB
:10E220005AFBF2A34FF45F72AFF2A80104200BF087
:10E2300091F800BFE8E710B504462146AFF271003F
:10E24000FFF7C7FA10BD7CB504460D462E4604EB19
:10E25000440000EBC400EA4901EBC0004088A0F58F
:10E260007F41FF392CD004EB440000EBC400E449AB
:10E2700001EBC000408818B304EB440000EBC4007D
:10E2800001EBC000103004EB440101EBC401DC4A97
:10E2900002EBC101CDE9001004EB440101EBC40124
:10E2A000134603EBC1014A8804EB440101EBC401AE
:10E2B00003EBC1014888AFF2810300210BF0F5F8B0
:10E2C00004EB440000EBC400CD4901EBC00040303A
:10E2D000717844EA0121CDE9001004EB84018A0041
:10E2E00004EB84018800AFF2291300210BF0DDF864
:10E2F0002046FFF71CFF00207CBD2DE9FC410446B1
:10E300000E463546002004EB440101EBC401BC4A33
:10E3100002EBC101087204EB440000EBC40011469B
:10E3200051F8300020F00800083004EB440101EB04
:10E33000C40142F83100611DC8B20AF033FF022C5B
:10E3400050D0032C59D02F1D388804EB440101EB29
:10E35000C401AB4A02EBC101488004EB440000EB6E
:10E36000C400114601EBC0004088A0F57F41FF3991
:10E370002CD004EB440000EBC400114601EBC000BC
:10E38000408818B304EB440000EBC40001EBC0006C
:10E39000103004EB440101EBC40102EBC101CDE9F3
:10E3A000001004EB440101EBC401134603EBC1016F
:10E3B0004A8804EB440101EBC40103EBC101488826
:10E3C000AFF28D1300210BF070F80AE004EB44016A
:10E3D00001EBC4018A4A02EBC10101F110000BF00C
:10E3E0001FF815E0281D018804EB440202EBC4026B
:10E3F000834B03EBC20251800AE0281D018804EB25
:10E40000440202EBC4027E4B03EBC202518000BF08
:10E4100000BF2046FFF78BFE0020BDE8FC8170B5F1
:10E42000054678480068C41CE07800F07F000228A8
:10E430001DD003DC38B1012837D10EE0102820D0E0
:10E44000142832D127E0E07810F0800F04D0214664
:10E450002846FFF752FF70BD28E0E07810F0800FEB
:10E4600004D121462846FFF7EEFEF4E700BFE0782E
:10E4700010F0800F04D121462846FFF716FEEAE788
:10E4800014E0E07810F0800F04D021462846FFF712
:10E49000FAFDE0E70AE0E07810F0800F04D12146B1
:10E4A0002846FFF7C5FDD6E700E000BF00BF00200B
:10E4B000D1E710B50446534800688078212802D07F
:10E4C000282808D103E02046FFF7A9FF03E02046F3
:10E4D000FFF746FD00BF00BF002010BD10B50CF0D7
:10E4E00060FE4FF0E021896989B240EA01042046CC
:10E4F0000EF0D4FF0EF0C8FF4FF4FF7190FBF1F265
:10E5000001FB120000F5007084B2204610BD2DE919
:10E51000F04105460C4601260120FEF77EFB3A48F5
:10E5200000EB0410C08905EB450101EBC501344A3D
:10E5300002EBC1014881344A02EB04121188324ACD
:10E5400002EB0412506808F075FB00283CD02F48FD
:10E5500000882F49088001202E490870294800684A
:10E56000407804281DD0092802D00D281ED103E0D0
:10E5700008F0D2F906461DE022480068877808F0C6
:10E5800036FA0646052F0BD121480088C0F3090052
:10E59000A0F54071FF3903D1FFF7A0FF1C490880A7
:10E5A00008E02846FFF785FF064603E008F096FAE4
:10E5B000064600BF00BF3EB1134901EB0411C889F4
:10E5C00013490988FFF7BFFABDE8F08170B504462A
:10E5D0000D460D4800EB0410008800285AD1E87A57
:10E5E000FE2819D070BD000037E200086C6F73740C
:10E5F000206865617274626561740D0A0000000034
:10E60000F430002080EA0108B433002032000020FA
:10E61000340000206E000020287B461DFB4800EBE4
:10E620000410068030460AF07EFBF84901EB041125
:10E630004860F64800EB04104068F44901EB04110F
:10E640008860F24800EB0410406840B1AA7AEF49B4
:10E6500001EB0411886805F10B010EF027FFEB4870
:10E6600000EB04108068A97A0844E84901EB041122
:10E670008860A87AE54901EB04114880E34800EB83
:10E68000041004736868C0F38920E04901EB0411A9
:10E69000C88148E0DD4800EB04104088A97A0844AE
:10E6A00086B2DA4800EB04100088B04208DBD74895
:10E6B00000EB04100088B04213DDA87A082810DAB5
:10E6C0000020D24901EB04110880D04901EB04116C
:10E6D00048680AF06DFB0020CC4901EB041148604A
:10E6E00070BDCA4800EB0410406840B1AA7AC7491F
:10E6F00001EB0411886805F10B010EF0D7FEC34849
:10E7000000EB04108068A97A0844C04901EB0411A9
:10E710008860BE4800EB04104088A97A0844BB49D1
:10E7200001EB04114880B94800EB04104088B74958
:10E7300001EB04110988884234D1B44800EB04107D
:10E74000008878B3B14800EB0410406888B124B168
:10E75000012C03D0022C0BD105E000BF2146012083
:10E76000FFF7D5FE04E021460220FFF7D0FE00BFF0
:10E7700000BF0020A54901EB04110880A34901EB6B
:10E7800004114880A14800EB0410406828B19F495B
:10E7900001EB041148680AF00BFB00209B4901EBD8
:10E7A0000411486000BF9BE770B506460024F51CC5
:10E7B000285D0C2801D0002070BD641C28190CF0C5
:10E7C000DBFC08B10020F7E70C34601C285C295DF5
:10E7D00040EA01208E49088008460088C0F30A00FC
:10E7E0000880FFF70BF8FEF7B0FF0120E4E72DE902
:10E7F000F041074607F108067568C5F30905A5F558
:10E800004070FF3801D1002406E0C5F3090002285A
:10E8100001D1012400E0022431462046FFF7D6FE54
:10E820000020BDE8F08110B5002200EB400303EBAF
:10E83000C003784C04EBC3031A7210BD30B5044614
:10E840000D46052C06DB0D2C04DA611FC8B22946E3
:10E85000FFF7E9FF30BD2DE9F0470746884614462B
:10E860001D46DDE908966C48006806706A48006835
:10E8700044706948006885703246494666480068B9
:10E88000C01C0EF013FE41463846FFF75CF9BDE8A8
:10E89000F0872DE9F0470746884691461C46DDE99A
:10E8A00008A6032F16D05C480068067004205A4959
:10E8B0000968487058480068847032465146564886
:10E8C0000068C01C0EF0F2FD49464046FFF73BF9D8
:10E8D000BDE8F0870325F01C4F490968087009203E
:10E8E0004D49096848704C480068847002222846E7
:10E8F0006D1C494909680A54002228466D1C464986
:10E9000009680A5428466D1C434909680A54252C95
:10E910000FD028466D1C404909680C5421203E49FF
:10E92000096888703C4800680078401C3A490968CA
:10E930000870394909684819324651460EF0B6FD4B
:10E9400003F076F900BF00BF0020C1E770B50546AF
:10E950000E46144630480068047009202E490968A4
:10E96000487030202C4909688870224631462A4870
:10E970000068C01C0EF09AFD254801882846FFF764
:10E98000E2F870BD0FB430B591B0044616A80090FF
:10E9900001A8009A15990FF005FA0020009001A82F
:10E9A0000EF0B2FDC5B22A4601A92046FFF7CEFF00
:10E9B00011B030BC5DF814FB18490860704770B5A1
:10E9C00004462546A86810B1D5E90210884770BDF5
:10E9D00070B590B00646F5B26C460020E070012D8F
:10E9E00002D0022D30D11DE0211D0822227002220A
:10E9F0006270A270002006E0094A32F8102001EB94
:10EA000040031A80401C0428F6DB3DE0B4330020AC
:10EA100032000020F430002084EA01084000002089
:10EA20001E440020211D1022227003226270A27059
:10EA3000002006E0614A52F8202001EB80031A60B2
:10EA4000401C0428F6DB1FE0211D18222270102232
:10EA50006270A270002007E0584A0A3A32F810208B
:10EA600001EB40031A80401C0428F5DB002008E07D
:10EA7000524A52F8203001F1080202EB8002136082
:10EA8000401C0428F4DB00BF00BF691DC8B24FF66C
:10EA9000FF734FF4FA7201210AF0C9FB012005EB64
:10EAA000450101EBC501464A02EBC101087205EBC5
:10EAB000450101EBC50102EBC10148812078001D31
:10EAC000C3B2224621212846FFF7C7F810B070BD17
:10EAD00010B504462146AFF20710FEF77AFE10BDCE
:10EAE0001CB5044604EB440000EBC400344901EBC0
:10EAF000C000007A00B11CBD04EB440000EBC40070
:10EB00002F4911F83000C0F3C00000B1F3E704EB67
:10EB1000440000EBC4002A4901EBC000403004EB84
:10EB200084018A0004EB8401CDE900408800AFF243
:10EB30005F0300210AF0B9FC00BFDCE710B5044612
:10EB400020480088C0F30900A0F54071FF3900D1CA
:10EB500010BD2046FFF7C4FF00BFF9E71FB56C46A4
:10EB600018480088C0F30900A0F54071FF3902D1B0
:10EB7000FF2004B010BD022020700020607004202F
:10EB8000A0700320E0700F480088A08001210C488D
:10EB9000A0F812112078001DC3B26A46212103207B
:10EBA000FFF75BF8C0B2E4E710B50120FFF7C6FF3E
:10EBB0000220FFF795FFFEF7AFFF10BD28440020AD
:10EBC000F4300020320000205C4870472DE9F0410D
:10EBD00004460D4616463246294620460BF05AFD9D
:10EBE00007463846BDE8F0812DE9F04104460D4660
:10EBF00016463246294620460BF0A6FD0746384603
:10EC0000BDE8F08170B504460E4615464C480068D4
:10EC1000057009204A4909684870494800688470AD
:10EC20002A46314646480068C01C0EF03FFC454865
:10EC3000007807F06BFF70BD10B5044642482168AC
:10EC40000160616841602189018102460A218120B9
:10EC5000FFF7BCFF10BD01463B4802680A604268EE
:10EC60004A60008908810A2070473848384908609E
:10EC7000704730B504460D46A11C087800B900E085
:10EC800000BF00BF002030BD2DE9F04104460E4614
:10EC90001746984600256078F02805D0F12807D15E
:10ECA0000120FDF7F0FF03E00120FDF7B6FF00BFF4
:10ECB00000BF2846BDE8F0812DE9F04104460D462D
:10ECC00016461F463B46324629462046FFF7DCFFE4
:10ECD000BDE8F08110B522211E480EF000FC1E4A4E
:10ECE000022121200BF030FD10B100201A490880CC
:10ECF0001A4A082122200BF027FD28B922221849A0
:10ED000016480EF016FC50B1144815490A68026006
:10ED100049684160024608212220FFF757FF0A4A4E
:10ED20000A218120FFF760FF38B107490DA0026872
:10ED30000A6042684A600089088110BD28EA01081B
:10ED400084EA01086F000020F43800200400FA056E
:10ED50000CED00E0FE3800204400002046000020BA
:10ED60003CEA010850574541313233343536000012
:10ED700038B504460D4604EB0410C0EBC410FE4940
:10ED800001EB800090F88C01A84200D138BD0DBB8A
:10ED900004EB0410C0EBC410F74901EB8000D0F87D
:10EDA000B80168B104EB0411C1EBC411F24A02EBE3
:10EDB00081016A46D1F8B801012108F0BEFD00BF0B
:10EDC00004EB0410C0EBC410EB4901EB800080F8A9
:10EDD0008C5127E004EB0410C0EBC410E64901EBB2
:10EDE0008000D0F8B801E8B9002008F083FC04EBFB
:10EDF0000411C1EBC411E04A02EB8101C1F8B80172
:10EE000004EB0410C0EBC410114601EB8000D0F8F5
:10EE1000B80138B104EB0410C0EBC41001EB800062
:10EE200080F88C5100BFB1E730B585B0044604EBE3
:10EE30000410C0EBC410D04901EB8000D0F8AC0145
:10EE400008B905B030BD04EB0410C0EBC410CA4AC9
:10EE500002EB8000D0F8AC112046884704EB041088
:10EE6000C0EBC410C44901EB8000D0F8900100B998
:10EE7000E7E704EB0410C0EBC410BF4901EB8000CE
:10EE800090F894018DF810000F208DF811000020EB
:10EE90008DF8120001208DF8130004A803F09BF8F0
:10EEA00004EB0410C0EBC410B34901EB8000D0F8B0
:10EEB0009E01009004EB0410C0EBC41001EB800035
:10EEC00090F8A201AD4931F81000ADF8040004EB50
:10EED0000410C0EBC410A84901EB800090F8A30116
:10EEE000A74931F81000ADF8060004EB0410C0EBA0
:10EEF000C410A14901EB800090F8A401A14931F8A8
:10EF00001000ADF808000020ADF80C000C20ADF8A2
:10EF10000A0004EB0411C1EBC411974A02EB810112
:10EF200091F8980169460BF04BFC04EB0411C1EB1E
:10EF3000C411914A02EB81010122D1F8900140F203
:10EF4000255103F01EFF904850F8240018BB04EB35
:10EF50000410C0EBC410884901EB800090F88C517C
:10EF60000120894941F82400002004EB0411C1EB81
:10EF7000C411814A02EB810181F88C0104EB041178
:10EF8000C1EBC41102EB8101C1F8B801294620464A
:10EF9000FFF7EEFE00BF04EB0410C0EBC41076498F
:10EFA00001EB800090F8A50104EB0411C1EBC41142
:10EFB000714A02EB8101A1F8880104EB0410C0EB57
:10EFC000C410114601EB800090F89C01B8B904EB25
:10EFD0000411C1EBC41102EB810191F8A80140F2C8
:10EFE000012109F052FB04EB0411C1EBC411624A88
:10EFF00002EB810191F8A801002109F081FB00BF1B
:10F000001FE770B504460D4604EB0410C0EBC410B6
:10F01000594901EB800090F89C0100B170BD65B1C9
:10F0200004EB0411C1EBC411534A02EB810191F8C6
:10F03000A801012109F064FB0BE004EB0411C1EB12
:10F04000C4114D4A02EB810191F8A801002109F099
:10F0500057FB00BFE2E710B5002400BF03E0E0B2B9
:10F06000FFF7E2FE641C062CF9DB10BD2DE9F04130
:10F0700004460F461546062C02DB0020BDE8F08151
:10F0800004EB0410C0EBC4103B4901EB800090F886
:10F090009D0100287AD104EB0411C1EBC411364A5A
:10F0A00002EB8101B1F8821104EB0412C2EBC4122D
:10F0B000314B03EB8202B2F88021914201D18021D1
:10F0C00019E004EB0411C1EBC4112B4A02EB8101DE
:10F0D000B1F88211803104EB0412C2EBC412264B4A
:10F0E00003EB8202B2F88021881AC11700EB51614C
:10F0F000C911A0EBC1118EB2AE4201DA0020BDE70A
:10F1000001212046FFF77DFF04EB0410C0EBC41083
:10F11000194901EB8000B0F8800104EB0411C1EB48
:10F12000C411154A02EB8101B1F8821188427DDBDE
:10F1300004EB0410C0EBC410114601EB8000B0F8E2
:10F140008001C0F18000A84233DD04EB0411C1EB63
:10F15000C41102EB810104EB0412C2EBC412064B92
:10F1600003EB8202B2F8802188182A4639460EF055
:10F170009DF904EB04100AE03839002046EA010842
:10F180004AEA010850EA01082039002097E0C0EB64
:10F19000C410FA4901EB8000B0F88001284404EB68
:10F1A0000411C1EBC411F54A02EB8101A1F8800101
:10F1B00076E004EB0411C1EBC411F04B03EB8101C9
:10F1C00004EB0413C3EBC413DFF8B0C30CEB8303ED
:10F1D000B3F88031C81804EB0411C1EBC4116346C5
:10F1E00003EB8101B1F88011C1F1800239460EF0C4
:10F1F0005DF904EB0410C0EBC410E04901EB8000A2
:10F20000B0F88001C0F18000074404EB0410C0EBAB
:10F21000C41001EB8000B0F88001C0F18000281A12
:10F2200085B204EB0411C1EBC41100E010E0D34A35
:10F2300002EB81002A4639460EF038F904EB04103F
:10F24000C0EBC410CD4901EB8000A0F8805127E04D
:10F2500004EB0411C1EBC411C84A02EB810104EBB9
:10F260000412C2EBC412C54B03EB8202B2F8802138
:10F2700088182A4639460EF019F904EB0410C0EB41
:10F28000C410BE4901EB8000B0F88001284404EBB3
:10F290000411C1EBC411B94A02EB8101A1F880014C
:10F2A00004EB0411C1EBC411B44A02EB8101012249
:10F2B000D1F8900140F2277103F063FD20E00026B1
:10F2C0001CE0B95D04EB0412C2EBC412AB4B03EBC0
:10F2D0008202D2F8900103F0C9FC00BF04EB0411D4
:10F2E000C1EBC411A54A02EB8101D1F89001402184
:10F2F00003F06CFD0028F1D0701C86B2AE42E0DB5A
:10F300000120BBE6002100EB0012C2EBC0129B4BB8
:10F3100003EB8202A2F88A1170472DE9F0410446FE
:10F320000E46154604EB0411C1EBC411934A02EBDF
:10F330008101B1F8861104EB0412C2EBC4128F4BA9
:10F3400003EB8202B2F88421914202D14FF4807122
:10F350001AE004EB0411C1EBC411884A02EB8101ED
:10F36000B1F8861101F5807104EB0412C2EBC412EE
:10F37000824B03EB8202B2F88421881AC11700EB9A
:10F3800011610912A0EB01218FB2AF4202DA002015
:10F39000BDE8F08104EB0410C0EBC410774901EB29
:10F3A0008000B0F8840104EB0411C1EBC411734A6E
:10F3B00002EB8101B1F8861188427CDB04EB04107A
:10F3C000C0EBC410114601EB8000B0F88401C0F519
:10F3D0008070A84228DD04EB0411C1EBC41102EBDC
:10F3E0008101803104EB0412C2EBC412634B03EBC6
:10F3F0008202B2F8842188182A4631460EF056F867
:10F4000004EB0410C0EBC4105C4901EB8000B0F8C1
:10F410008401284404EB0411C1EBC411574A02EBE8
:10F420008101A1F884017AE004EB0411C1EBC4115D
:10F43000524B03EB8101803104EB0413C3EBC41383
:10F44000DFF838C10CEB8303B3F88431C81804EB40
:10F450000411C1EBC411634603EB8101B1F88411BF
:10F46000C1F5807231460EF021F804EB0410C0EBB8
:10F47000C410424901EB8000B0F88401C0F58070EF
:10F48000064404EB0410C0EBC41001EB8000B0F89C
:10F490008401C0F58070281A85B204EB0411C1EB19
:10F4A000C411364A02EB810101F180002A4631463F
:10F4B0000DF0FCFF00E009E004EB0410C0EBC41009
:10F4C0002E4901EB8000A0F8845128E004EB0411E0
:10F4D000C1EBC411294A02EB8101803104EB041213
:10F4E000C2EBC412254B03EB8202B2F884218818C8
:10F4F0002A4631460DF0DAFF04EB0410C0EBC410CD
:10F500001E4901EB8000B0F88401284404EB04118B
:10F51000C1EBC411194A02EB8101A1F88401204614
:10F52000FFF7F0FE04EB0410C0EBC410134901EB2D
:10F530008000D0F8B40168B1012D0BD1317804EB13
:10F540000410C0EBC4100D4B03EB8000D0F8B421C5
:10F550002046904701201BE700EB0012C2EBC012CF
:10F56000064B03EB8202A2F8881100EB0012C2EBFB
:10F57000C01203EB8202A2F88A11704738390020CA
:10F580002DE9F04704460F46154604EB0411C1EB84
:10F59000C411FE4A02EB8101B1F88611C1F58071F8
:10F5A00004EB0412C2EBC412F84B03EB8202B2F874
:10F5B00084218818C11700EB11610912A0EB012109
:10F5C0001FFA81F8454501DB08F0FF05002D7DDDC0
:10F5D00000BF07F0D1FB814604EB0410C0EBC41060
:10F5E000EA4901EB8000B0F8860104EB0411C1EB9D
:10F5F000C411E64A02EB8101B1F88411884215DAA0
:10F6000004EB0410C0EBC41002EB8000803004EB6C
:10F610000412C2EBC412DD4B03EB8202B2F8862166
:10F6200081182A4638460DF041FF6CE004EB0410C7
:10F63000C0EBC410D54901EB8000B0F88601C0F5DD
:10F640008070A8422DDC04EB0410C0EBC4100B4604
:10F6500003EB8000803004EB0413C3EBC4138C462F
:10F660000CEB8303B3F88631C11804EB0410C0EB34
:10F67000C410634603EB8000B0F88601C0F58072C9
:10F6800038460DF013FF04EB0410C0EBC410BF4963
:10F6900001EB8000B0F88601C0F58070281A86B2B0
:10F6A00018E004EB0410C0EBC410B84A02EB800071
:10F6B000803004EB0412C2EBC412B44B03EB8202A1
:10F6C000B2F8862181182A46384600E05DE00DF048
:10F6D000EDFE0026002E16DD04EB0412C2EBC41270
:10F6E000AA4B03EB820202F1800104EB0412C2EB8D
:10F6F000C41203EB8202B2F88621C2F58072D019DF
:10F7000032460DF0D3FE04EB0411C1EBC4119F4A45
:10F7100002EB8101B1F886114819C11700EB1161A4
:10F720000912A0EB012104EB0412C2EBC412974BA7
:10F7300003EB8202A2F8861104EB0410C0EBC410A4
:10F74000194601EB8000B0F8860104EB0411C1EB0F
:10F75000C4111A4602EB8101B1F88411884210D11C
:10F76000002004EB0411C1EBC41102EB8101A1F8EC
:10F77000840104EB0411C1EBC41102EB8101A1F877
:10F780008601484607F0FCFA00BF2846BDE8F0872E
:10F7900070B5044604EB0410C0EBC4107B4901EBC8
:10F7A0008000B0F8860104EB0411C1EBC411774A64
:10F7B00002EB8101B1F88411884200D170BD04EBE5
:10F7C0000410C0EBC410714901EB8000B0F88A014D
:10F7D000401C04EB0411C1EBC4116C4A02EB810123
:10F7E000A1F88A0104EB0410C0EBC410114601EB30
:10F7F0008000B0F88A0104EB0411C1EBC41102EBE4
:10F800008101B1F88811884242DB04EB0411C1EB9D
:10F81000C41102EB8101B1F88611C1F5807104EBCE
:10F820000412C2EBC412594B03EB8202B2F88421DA
:10F830008818C11700EB11610912A0EB01218EB2EB
:10F8400004EB0410C0EBC410194601EB800090F8E3
:10F850008C0180B93146042009F09CFB0546B5B106
:10F86000F2B205F108012046FFF78AFEAC70284687
:10F8700009F0AEFB0BE004EB0411C1EBC411434AE9
:10F8800002EB8101D1F8B801012108F09EF800BF18
:10F8900000BF93E710B5044604EB0410C0EBC4109E
:10F8A0003A4901EB8000B0F8880104EB0411C1EB88
:10F8B000C411364A02EB8101A1F88A012046FFF704
:10F8C00067FF10BD70B5044604F1100504EB041089
:10F8D000C0EBC4102D4901EB800000F5CF720A2166
:10F8E00028460AF031FF60B104EB0411C1EBC411EA
:10F8F000264A02EB810101F5CF70FF220A210DF0AB
:10F90000E7FD04EB0410C0EBC410204901EB8000BC
:10F91000D0F89E01B0F5E13F0AD94FF4165004EB40
:10F920000411C1EBC411194A02EB8101C1F89E0117
:10F9300004EB0410C0EBC410144901EB800090F8F4
:10F94000A201022809DB002104EB0410C0EBC41063
:10F950000E4A02EB800080F8A21104EB0410C0EB09
:10F96000C4100A4901EB800090F8A301032809DBC9
:10F97000002104EB0410C0EBC410044A02EB800029
:10F9800080F8A31104EB041002E0000038390020D5
:10F99000C0EBC4104C4901EB800090F8A40103288F
:10F9A00009DB002104EB0410C0EBC410464A02EB53
:10F9B000800080F8A41104EB0410C0EBC41042498D
:10F9C00001EB800090F8A501FA280ADD0A2104EB7A
:10F9D0000410C0EBC4103C4A02EB800080F8A51173
:10F9E00014E004EB0410C0EBC410374901EB8000B5
:10F9F00090F8A5010A2809DA0A2104EB0410C0EBEB
:10FA0000C410314A02EB800080F8A51170BD014698
:10FA100001EB0110C0EBC1102B4A02EB800090F803
:10FA20008C017047014601EB0110C0EBC110264A62
:10FA300002EB8000B0F8860101EB0112C2EBC112AB
:10FA4000214B03EB8202B2F88421904201D10120C4
:10FA500070470020FCE710B5014601EB0110C0EB38
:10FA6000C110194B03EB8000B0F88201803001EB2C
:10FA70000113C3EBC113144C04EB8303B3F88031BF
:10FA8000C21AD01702EB5060C011A2EBC01010BD1B
:10FA900070B50546AC78062C14DA04EB0410C0EB04
:10FAA000C410094901EB8000D0F8B00150B104EB5B
:10FAB0000410C0EBC4100A4602EB8000D0F8B0116D
:10FAC00028468847002070BD383900202DE9FC41C8
:10FAD0000026B046FE4C671DFE4890F87E0010F0F0
:10FAE0001F0F6FD01020E0700220A0706070002007
:10FAF0002071701CC6B2002553E0F648B0F87E00B5
:10FB00000121A94008424AD005EB45010D31C8B298
:10FB1000002101913D70EF49891C31F81010090A4C
:10FB20008DF80710EB49891C11F810108DF806109C
:10FB3000E849891C421C31F81210090A8DF8051099
:10FB4000E449891C11F812108DF804109DED010A8A
:10FB50008DED000A009AC7F80320DE49891C821C3B
:10FB600031F81210A7F80110FF1DF11DCEB24FF0B1
:10FB70000108D849891C31F810203E3121F81020A5
:10FB80003E39421C31F812303E3121F812303E39F4
:10FB9000821C31F812303E3121F8123000BF681C4F
:10FBA000C5B2052DA9DB2670B8F1000F0AD0301DB3
:10FBB000C0B22123CDE90040C74802880121084690
:10FBC000FEF767FEBDE8FC812DE9FC410026B0464A
:10FBD000BF4D6F1DBF4890F87E0010F0E00F3AD087
:10FBE0001020E8700220A870687001202871701C35
:10FBF000C6B200241EE0B748B0F87E00611D0122A5
:10FC00008A40104214D0E0B23C70B249891C31F8ED
:10FC10001010C7F80110AF49891C31F810203E318F
:10FC200021F81020711DCEB27F1D4FF0010800BFDA
:10FC3000601CC4B2032CDEDB2E70B8F1000F0AD0BA
:10FC4000301DC0B22123CDE90050A3480288012114
:10FC50000846FEF71EFEBDE8FC812DE9FC410026AA
:10FC6000B0469B4C671D9B48B0F8800010F4E04FF5
:10FC70003CD01020E0700220A0706070062020713F
:10FC8000701CC6B2002520E09248B0F8800005F153
:10FC90000C0101228A40104215D0E91CC8B23D7007
:10FCA0008C49891C31F81010C7F801108949891C4A
:10FCB00031F810203E3121F81020711DCEB27F1D89
:10FCC0004FF0010800BF681CC5B2032DDCDB2670B5
:10FCD000B8F1000F0AD0301DC0B22123CDE9004099
:10FCE0007D48028801210846FEF7D3FDBDE8FC816E
:10FCF0002DE9FC410026B046754C671D7548B0F8EB
:10FD0000800010F4407F3CD01020E0700220A070F2
:10FD1000607004202071701CC6B2002520E06D4880
:10FD2000B0F8800005F1080101228A40104215D088
:10FD3000E91DC8B23D706749891C31F81010C7F839
:10FD400001106449891C31F810203E3121F810203F
:10FD5000711DCEB27F1D4FF0010800BF681CC5B2F7
:10FD6000022DDCDB2670B8F1000F0AD0301DC0B2C6
:10FD70002123CDE900405848028801210846FEF7BA
:10FD800088FDBDE8FC812DE9FC410027B846504DB7
:10FD90006E1D5048B0F8800010F4406F4ED0102017
:10FDA000E8700220A870687005202871781CC7B21E
:10FDB000002432E04748B0F8800004F10A01012233
:10FDC0008A40104227D04A1ED0B24A1CD1B23470A9
:10FDD000404A921C32F81020C6F801203D4A921C7D
:10FDE00032F810303E3222F81030D6F801303E3A68
:10FDF00032F8112043EA0242C6F80120354A921C2B
:10FE000032F811303E3222F811307A1DD7B2761D09
:10FE10004FF0010800BF601CC4B2022CCADB2F7077
:10FE2000B8F1000F0AD0381DC0B22123CDE900502F
:10FE30002948028801210846FEF72BFDBDE8FC8118
:10FE40002DE9FC410026B046214C671D2148B0F841
:10FE5000800010F4004F43D01020E0700220A0700A
:10FE6000607007202071701CC6B2002520E0194880
:10FE7000B0F8800005F10F0101228A40104215D030
:10FE8000A91DC8B23D701349891C31F81010C7F87C
:10FE900001101049891C31F810203E3121F8102042
:10FEA000711DCEB27F1D4FF0010800BF681CC5B2A6
:10FEB000012DDCDB2670B8F1000F11D0301DC0B26F
:10FEC0002123CDE90040044802880121084605E0CD
:10FED000F4340020A043002032000020FEF7D9FCBB
:10FEE000BDE8FC812DE9FC4106460025F94C671D63
:10FEF0001020E0700220A070607020716D1C3E70B8
:10FF00006D1C2570F4484670006820F00100401C0C
:10FF1000F1490860281D2123CDE90040EF480288FF
:10FF200001210846FEF7B5FCBDE8FC8110B504468A
:10FF3000E9484487007810F0010F02D0E648447089
:10FF400002E02046FFF7CEFF10BD10B50446E248A0
:10FF50004078A04206D1E048006820F00100DE4968
:10FF6000086008E0DC48007810F0010F03D0DA499F
:10FF70004878FFF7B7FF10BD7CB50025D54C661D4E
:10FF80001020E0700220A0706070082020716D1CAD
:10FF9000D14890ED3B0A8DED010A01983060CE48C2
:10FFA00090ED3A0A8DED010A0198706008352570D0
:10FFB000281D2123CDE90040C848028801210846B8
:10FFC000FEF767FC7CBD2DE9FC410026C14D6F1D8D
:10FFD000C148B0F8980060B31020E8700320A87002
:10FFE00000202871701CC6B2002412E0BA48B0F894
:10FFF00098000121A140084209D03C70B6488830E1
:020000040801F1
:1000000050F82400C7F801007F1D701DC6B2601CA7
:10001000C4B2042CEADB2E70301DC0B2CDE9005012
:10002000AE480088401C82B2212301210220FEF745
:1000300030FCBDE8FC8110B5A9480068401CA84907
:100040000860FFF7C1FDA6480068032190FBF1F2AC
:1000500001FB120020B1012805D002280FD105E0D4
:10006000FFF7B1FF0BE0FFF731FD08E0FFF7F5FD0B
:10007000FFF73EFEFFF787FEFFF7E2FE00BF00BF7F
:100080009548007810F0010F03D093494878FFF7A6
:1000900029FF10BD2DE9F04106460B460021012045
:1000A0009F1C01F1010C17F80CC07F5C4CEA07257E
:1000B000891C9F1C01F1010C17F80CC07F5C4CEAF5
:1000C0000724891C012E02D0022E1CD11CE02946D7
:1000D00016E0814FBF1C37F811704FEA172C971CA0
:1000E00007F800C07C4FBF1C17F81180971C00F167
:1000F000010C07F80C80801C1F2900DBB5E0491CAF
:100100002F198F42E5DCAEE0671C07EBD77CCCF300
:100110004F040021A3E015EB410706D0022F2AD09F
:10012000042F4ED0062F25D171E06B4FD7F8887081
:100130003F0E02F1020C0CF80070674FD7F8887080
:10014000C7F30748971C00F1010C07F80C80624FB9
:10015000B7F88870C7F30728971C00F1020C07F85E
:100160000C805D4F97F88880971C00F1030C07F80E
:100170000C80001D71E0584FD7F88C703F0E02F1D3
:10018000020C0CF80070544FD7F88C70C7F3074876
:10019000971C00F1010C07F80C804F4FB7F88C70DA
:1001A000C7F30728971C00F1020C07F80C804A4F90
:1001B00097F88C80971C00F1030C07F80C80001D49
:1001C0004BE0454FD7F890703F0E02F1020C0CF84F
:1001D0000070414FD7F89070C7F30748971C00F1A3
:1001E000010C07F80C803C4FB7F89070C7F3072854
:1001F000971C00F1020C07F80C80374F97F890809D
:10020000971C00F1030C07F80C80001D25E0324F0D
:10021000D7F894703F0E02F1020C0CF800702E4FCC
:10022000D7F89470C7F30748971C00F1010C07F842
:100230000C80294FB7F89470C7F30728971C00F17A
:10024000020C07F80C80244F97F89480971C00F15B
:10025000030C07F80C80001D00BF00BF491CA14221
:10026000FFF659AF00BF00BF00BF9070BDE8F0813E
:100270002DE9F04104460B46002001219F1C00F1AE
:10028000010C17F80CC03F5C4CEA0725801C9F1C32
:1002900000F1010C17F80CC03F5C4CEA0726801CEB
:1002A000284638E0012C1ED10B4F7E3737F81070EE
:1002B0004FEA172C971C07F801C0074F7E3717F835
:1002C0001080971C01F1010C07F80C80891C042890
:1002D00008DB24E0F4340020A0430020320000209A
:1002E0005000002015E0012811DAFD4F37F810709A
:1002F0004FEA172C971C07F801C0F94F17F8108028
:10030000971C01F1010C07F80C80891C00E006E045
:1003100000BF00BF401CAF198742C3DC00BF917013
:10032000BDE8F0812DE9F05F83460D4616460024B6
:10033000A81C611C415CA81C005D41EA0027A41CAC
:10034000A81C611C415C005D41EA002AA41C3C46DB
:100350002CE0E01BC11700EB5171C1F3C708E01B93
:10036000C11700EB5171C910A0EBC10101F0FF09E9
:10037000032C00DB1EE0B9F1000F07D1E0B2FCF75F
:1003800075FE08F10101B21C50540EE0E0B2FCF71A
:100390006DFE00FA09F008F10101B21C515C08433E
:1003A000C2B208F10100B11C0A54641C07EB0A0038
:1003B000A042CEDC00BFE11BC81DC11700EB51718C
:1003C000C1F3C701B170BDE8F09F2DE9F0470746C2
:1003D0000C4616460025A01C691C415CA01C405D13
:1003E00041EA0028AD1CA01C691C415C405D41EA4B
:1003F0000029AD1C012F0DD1B8F1100F0ADAB9F1A7
:10040000000F01D0012200E00022114608F0FF0099
:1004100000F065FDA078B070E178F170217931715C
:1004200061797171BDE8F0872DE9F84F81460C467E
:1004300017460025A01C691C415CA01C405D41EAD8
:100440000028AD1CA01C691C415C405D41EA0020F5
:100450000090AD1C6D1CB9F1010F2DD1464626E070
:10046000A6EB0800C11700EB5171C1F3C70AA6EB58
:100470000800C11700EB5171C910A0EBC10101F0D8
:10048000FF0B102E00DB16E005EB0A01A01C405C00
:10049000012101FA0BF1084204D0F0B2012100F071
:1004A0001EFD03E0F0B2002100F019FD761C00985B
:1004B0004044B042D4DC00BFA078B870E178F97055
:1004C0002179397161797971BDE8F88F2DE9F05F93
:1004D00081460D4616460024A81C611C415CA81CE0
:1004E000005D41EA0027A41CA81C611C415C005D62
:1004F00041EA002BA41CB9F1010F33D13C462CE09A
:10050000E01BC11700EB5171C1F3C708E01BC11715
:1005100000EB5171C910A0EBC10101F0FF0A102CD2
:1005200000DB1EE0BAF1000F07D1E0B200F017FDCA
:1005300008F10101B21C50540EE0E0B200F00FFDD2
:1005400000FA0AF008F10101B21C515C0843C2B282
:1005500008F10100B11C0A54641C07EB0B00A04217
:10056000CEDC00BFE11BC81DC11700EB5171C1F308
:10057000C701B170BDE8F09F2DE9F04707460D4671
:1005800016460024A81C611C415CA81C005D41EAC1
:10059000002AA41CA81C611C415C005D41EA0028E3
:1005A000A41CA81C611C415C005D41EA0029A41C3C
:1005B000012F1DD1BAF1000F1AD100F0E7FC8246DD
:1005C000002413E00120A04010EA080F0DD0012004
:1005D000A04010EA090F04D0E0B2012100F07FFC36
:1005E00003E0E0B2002100F07AFC641C102CE9DB8F
:1005F000A878B070E978F1702979317169797171F1
:10060000A979B171E979F171BDE8F0872DE9F05F61
:1006100081460C4617460026A01C711C415CA01C9C
:10062000805D41EA0025B61CA01C711C415C805D08
:1006300041EA0028B61CA078B870E178F9702179F9
:10064000397161797971B9F1010F03D0B9F1020FF4
:100650002AD123E0042D20DA21481A3820F8158009
:10066000022D02D0032D16D100E000BF05F10800D5
:1006700000F0FF0A4FEA182B0021504600F02FFC33
:1006800008F0FF01AA1ED0B200F0BCFC594650464B
:1006900000F025FC00E000BF00BF05E0012D02DAFC
:1006A0000F4820F8158000BF00BFBDE8F09F2DE97E
:1006B000FC5F82460C4690460025A01C691C415CEC
:1006C000A01C405D41EA0027AD1CA01C691C415CD8
:1006D000405D41EA00200190AD1C6D1C002645E004
:1006E00038440020A01C691C415C405D41EA00299F
:1006F000BAF1010F03D0BAF1020F33D129E0B819D2
:10070000042825DAB919FE4820F81190B8190228F2
:1007100002D003281AD100E000BF07F10A003044DC
:10072000801E00F0FF0B4FEA192000900021584670
:1007300000F0D5FB09F0FF01BA19921ED0B200F00B
:1007400061FC5846009900F0CAFB00E000BF00BF02
:1007500008E0B819012804DAB919E9481A3020F874
:10076000119000BF00BFAD1C701C86B2019886427C
:10077000B8DBA07888F80200E17888F803102179C6
:1007800088F80410617988F80510BDE8FC9F2DE910
:10079000F84F80460E4617460024B01C611C415C91
:1007A000B01C005D41EA0025A41CB01C611C415C2A
:1007B000005D41EA0029A41CB01C611C415C005D85
:1007C00041EA002AA41CB8F1010F03D0B8F1020FCE
:1007D00072D146E0042D43DA00241EE00120A0403F
:1007E00010EA090F18D00120A04010EA0A0F0AD021
:1007F000C34830F815000121A140084381B2C04828
:1008000020F8151008E0BE4830F815000121A1407D
:100810008843BB4921F81500641C102CDEDB022D37
:1008200002D0032D1AD100E000BF05F1080000F04E
:10083000FF0BB34830F81500000A0090002158461D
:1008400000F04DFBAE4A12F81510AA1ED0B200F00F
:10085000D9FB5846009900F042FB00E000BF00BF02
:100860002AE0012D27DA002423E00120A04010EA2D
:10087000090F1DD00120A04010EA0A0F0CD0A0489B
:100880001A3030F815000121A140084381B29C487C
:100890001A3020F815100BE099481A3030F815106E
:1008A0000120A04021EA000095491A3121F81500E5
:1008B000641C102CD9DB00BF00BFB078B870F17891
:1008C000F9703179397171797971B179B971F179D9
:1008D000F971BDE8F88F70B506460D469DB9002048
:1008E00087497E39A1F87E00002185487E38A0F82E
:1008F0008010002404E0E0B2002100F0F0FA641C53
:10090000102CF8DB00E000BF00BF70BD70B52DED0E
:100910000C8B9FED7C0AB0EE408A79487E3890F8C7
:10092000DC0004281FDA00240AE075481E3000EBC2
:10093000C40090ED000A30EE080AB0EE408A641C54
:100940006F487E3890F8DC00A042EEDC6C487E38C0
:1009500090F8DC0000EE100AB8EE400AC8EE000A7B
:10096000B0EE608A20E0002416E065497E3991F8F7
:10097000DD10C91D081BC11700EB5171C910A0EB98
:10098000C1055F481E3000EBC50090ED000A30EE57
:10099000080AB0EE408A641C042CE6DBB1EE000AC3
:1009A000C8EE000AB0EE608A55487E3880ED398A7C
:1009B000014691F8DD10C91D081BC11700EB5171EC
:1009C000C910A0EBC10518EE100A0CF00EFF41ECA7
:1009D000100BB0EE40AAF0EE60AA49481E3000EBC2
:1009E000C50080880A2190FBF1F0C0F1190630465D
:1009F0000CF0EAFE41EC100BB0EE40DAF0EE60DAFB
:100A00009FED410B53EC102B51EC1D0B0CF06AFECB
:100A100041EC100BB0EE40CAF0EE60CA9FED3C0B0B
:100A200053EC102B51EC1C0B0CF0B5FD41EC100BF2
:100A3000B0EE40BAF0EE60BA53EC1A2B51EC1B0B3F
:100A40000CF050FE41EC100BB0EE409AF0EE609AC4
:100A500051EC190B0CF0DCFE29497E39C1F8EC0091
:100A6000BDEC0C8B70BDDFED270AB0EE600A2449A7
:100A70007E3991F8DC10042920DA01200AE02049AF
:100A80001E3101EBC001D1ED000A70EE800AB0EE1C
:100A9000600A401C1A497E3991F8DC108142EEDC74
:100AA00017497E3991F8DC10491E00EE901AF8EED5
:100AB000E00A80EE201AB0EE410A20E0012016E0A4
:100AC0000F4B7E3B93F8DD30DB1D191ACB1701EB82
:100AD0005373DB10A1EBC30209491E3101EBC201C4
:100AE000D1ED000A70EE800AB0EE600A401C0428C6
:100AF000E6DBF0EE080A80EE201AB0EE410A0BE0C9
:100B00001E44002000000000B81E85EB51B89E3F37
:100B1000000000000000F03F824981ED380A0B46DA
:100B200093F8DD30DB1D191ACB1701EB5373DB1083
:100B3000A1EBC3027B4981ED3A0A704710B52DED58
:100B4000028BB0EE408A0446764890F8DD109C3067
:100B500000EBC10080ED008A724890F8DD109C30F7
:100B600000EBC10084806F4991F8DD10481CC1176B
:100B700000EB5171C910A0EBC1016A4A82F8DD1087
:100B8000104690F8DC00082806DA104690F8DC00E1
:100B9000401C114681F8DC00624890F8DE00022813
:100BA0000BD1604890F8DC00082806DB002000F03C
:100BB000D1FFFFF758FFFFF7DFF9BDEC028B10BD47
:100BC00010B504462078574981F8DE00084690F8B1
:100BD000DE00012802D0022807D103E0012000F046
:100BE000B9FF03E0FFF792FE00E000BF00BF002066
:100BF0004C4981F8DC0081F8DD0010BD0020494936
:100C000048700846006820F001000860704730B561
:100C10000346881F434C883454F82000401C8C1F26
:100C2000404D883545F82400002030BD3D4890F8FF
:100C3000DF0020F002003B4981F8DF007047002010
:100C4000384991F8DF1011F0010F00D006E0354966
:100C500091F8DF1011F0020F00D0012070471CB591
:100C6000F02130480CF03BFC4FF40071162007F0E7
:100C70000CFD0821162007F05FFD162007F0C1FDCE
:100C8000C4B20020AFF2790101230246CDE9001081
:100C9000214607F0CEFD4FF40071172007F0F5FC58
:100CA0000821172007F048FD172007F0AAFDC4B25D
:100CB0000020AFF2A50101230246CDE90010214634
:100CC00007F0B7FD4FF40071182007F0DEFC082193
:100CD000182007F031FD182007F093FDC4B2002062
:100CE000AFF2D50101230246CDE90010214607F0FD
:100CF000A0FD4FF40071192007F0C7FC082119204E
:100D000007F01AFD192007F07CFDC4B20020AFF2F5
:100D1000011101230246CDE90010214607F089FDAB
:100D20001CBD0000A0430020AA49095C11F0010F7E
:100D300002D000F12001C8B27047A649095C11F049
:100D4000020F02D0A0F12001C8B2704770B5002593
:100D5000FF227021A0480CF0BBFB2C461AE00020BB
:100D6000C4EBC4019C4A5054601B801DC4EBC401F9
:100D7000114448700120C4EBC40111448870FF2065
:100D8000C4EBC4011144C870C4EBC40111444871E0
:100D9000601CC4B205F108008442E0DBC5B22C46F9
:100DA0001EE00120C4EBC4018B4A505404F10E0034
:100DB000401BC4EBC401114448700120C4EBC401C2
:100DC00011448870E01D401BC4EBC4011144C8707D
:100DD000E01D401BC4EBC40111440871601CC4B287
:100DE000A81C8442DDDBC5B22C462AE00220C4EBFD
:100DF000C401794A5054601BC4EBC40111444870CB
:100E00000020C4EBC40111448870E01C401BC4EBFB
:100E1000C4011144C87004F10900401BC4EBC401B3
:100E200011440871601D401BC4EBC401114448719A
:100E300004F10B00401BC4EBC40111448871601C19
:100E4000C4B2A81C8442D1DBC5B22C461EE00320EC
:100E5000C4EBC401604A5054A01C401BC4EBC40145
:100E6000114448700120C4EBC4011144887004F19E
:100E70000A00401BC4EBC4011144C870E01C401BB5
:100E8000C4EBC40111440871601CC4B2E81C844264
:100E9000DDDBC5B22C461EE00420C4EBC4014E4A83
:100EA0005054601B401DC4EBC40111444870012024
:100EB000C4EBC4011144887004F10900401BC4EB69
:100EC000C4011144C870A01D401BC4EBC4011144EF
:100ED0000871601CC4B2681C8442DDDB70BD70B553
:100EE00004460D46C4EBC4023B4B1A4492780AB147
:100EF0002A4603E00DB9012200E000221146C4EBAE
:100F0000C402354B1A445078FCF751F9C4EBC400C5
:100F10003149085C012806D0022807D0032803D0F5
:100F2000042804D101E000BF00BF00E000BF00BF03
:100F300055B12A48B0F880000121A140084381B290
:100F40002648A0F8801009E02448B0F8801001205D
:100F5000A04021EA00002149A1F8800070BD70B5D1
:100F60000446C4EBC4011C4A11444878FCF728F934
:100F70000546C4EBC40018490844807808B12846E7
:100F800070BD0DB90120FBE70020F9E770B5002521
:100F900000241BE0C4EBC4010F4A11444878FCF75D
:100FA0000FF90646C4EBC4000B490844807808B129
:100FB000304603E00EB9012000E0002006461EB1D5
:100FC0000120A040284385B2601CC4B2102CE1DB94
:100FD000284670BDCC01002090440020A043002092
:100FE0003049095C11F0010F02D000F12001C8B2B4
:100FF00070472C49095C11F0020F02D0A0F12001CA
:10100000C8B2704770B504460D462749085D0021F7
:1010100007F076FB254800EBC4004068016800201B
:101020008847224800EBC40040680168284688478A
:101030001E4800F834501C49085D012107F060FB90
:1010400070BD0146194810F83100704770B5202373
:1010500000221146104609F0A7F805461348002162
:10106000016041608160C16000240FE00E49085DAD
:1010700040F2012107F009FB0B49085D012107F04F
:101080003FFB0A4800EBC4004560641C022CEDDB0A
:10109000002404E0E0B20021FFF7B4FF641C022C3E
:1010A000F8DB70BDCC01002056EA010800450020A5
:1010B0002DE9FE4F0546894617461E46022F02DAE5
:1010C000FF20BDE8FE8F2878412802D16878542897
:1010D00001D0FF20F5E70020E855B81EC7B2AD1CCF
:1010E0002FB128780D2802D028780A280AD14F205D
:1010F00089F800004B2089F801003078801C30709E
:101100000020DEE74FF008080FF2C82A47456ADBE7
:101110004246294650460CF022FA002877D1A7EB28
:101120000800C7B2454401AB02AA3D21284608F099
:10113000E2FA08B9FF20C4E7002409E104EB8400C7
:10114000A74A02EB8000C16802980CF0E4F900287D
:101150006FD1019800783F286DD104EB8400A0493D
:1011600001EB8000807A9F490978884250DC04EBCB
:1011700084009B4901EB8000407A98BB04EB84001B
:101180000B4603EB8000027A04EB840003EB800043
:10119000416868460CF08AF904EB8400904901EB41
:1011A0008000007A012802D19DF800000BE004EBDA
:1011B00084008B4901EB8000007A022802D1BDF83F
:1011C000000000E00098034604EB8400844901EB32
:1011D000800085A1C26848460CF0C8FD31780844FB
:1011E000307024E000E0BEE004EB84007C4901EBB9
:1011F0008000436804EB840001EB80007CA1C2689E
:1012000048460CF0B3FD3178084430700FE0A9E097
:1012100004EB8400724901EB800077A1C268484664
:101220000CF0A4FD317808443070002049E700201C
:1012300047E78BE0FFE704EB8400694901EB80009E
:10124000007A012806D101980CF098F9C0B28DF807
:1012500000001AE004EB8400614901EB8000007A91
:10126000022806D101980CF089F980B2ADF800008F
:101270000BE004EB84005A4901EB8000007A04285B
:1012800003D101980CF07AF9009004EB84005449E2
:1012900001EB8000407A70B904EB8401504B03EB02
:1012A00081010A7A04EB840103EB810148686946F5
:1012B0000CF0FCF812E001980CF026F904EB840124
:1012C000474A02EB8101097A884207D804EB84017E
:1012D00002EB8101486801990CF038F904EB8400B5
:1012E0003F4901EB8000807A3E49097888421EDC44
:1012F00004EB84023A4B03EB8202117A04EB840282
:1013000033F822006A46FDF761FC834604EB840053
:10131000334901EB8000006938B104EB84000A46D0
:1013200002EB80000169684688475846C9E604EB2D
:1013300084002B4901EB80002FA1C26848460CF0C5
:1013400015FD3178084430700020BAE6601CC4B244
:1013500004EB8400224931F8200000287FF4EEAE2F
:10136000FF20AEE600BF4FF005080FF2A40A474584
:101370002DDB4246294650460CF0F1F838BB17A049
:10138000029016A00190A7EB0800C7B245442C4676
:101390002621204608F03FF920460CF0B5F828B188
:1013A000029420460CF0B0F8401C044420460CF097
:1013B000ABF828B1019420460CF0A6F8401C044478
:1013C00002A808F071F901A808F06EF900BFFF202B
:1013D00077E600002B434F4E4649473D0000000092
:1013E00058EA01085400002025733A2575000000D2
:1013F00025733A2573000000636F6E6669672025C8
:10140000733A20756E617574686F72697A656400ED
:101410002B4C4F473D00000070B502460B460020A4
:10142000002113E0555C00240DE085EA000616F06B
:10143000010F04D04AF2010686EA600600E0461079
:1014400030466D10641C082CEFDB491C9942E9DB27
:1014500070BD70B504460D4629462046FFF7DCFFF7
:101460000646300A6055681C265470BD10B5044607
:1014700004EB0411C1EBC411F94A02EB81004FF4F3
:10148000C6710CF02CF8002004EB0411C1EBC41160
:10149000F34A02EB810181F88C0104EB0411C1EBEA
:1014A000C41102EB810181F89C0104EB0411C1EB32
:1014B000C41102EB810181F8A801022C02D0052C95
:1014C0004CD125E0E74804EB0411C1EBC411E44A18
:1014D00002EB8101C1F89001272004EB0411C1EB5C
:1014E000C41102EB8101C1F89401022004EB041144
:1014F000C1EBC41102EB8101C1F89801602004EB3B
:101500000411C1EBC41102EB810181F8A80125E0AF
:10151000D54804EB0411C1EBC411D14A02EB81019F
:10152000C1F89001472004EB0411C1EBC41102EB98
:101530008101C1F89401052004EB0411C1EBC41131
:1015400002EB8101C1F89801612004EB0411C1EBA9
:10155000C41102EB810181F8A80100BF00BF204641
:10156000FEF7B0F94FF4165004EB0411C1EBC411AF
:10157000BB4A02EB8101C1F89E01002104EB04107B
:10158000C0EBC41002EB800080F8A21104EB041041
:10159000C0EBC41002EB800080F8A31104EB041030
:1015A000C0EBC41002EB800080F8A41110BD2DE93F
:1015B000F843054688462878A0F1C10606EB4600A8
:1015C0000D30C4B22879E97840EA0121A74820F813
:1015D0001410A879697940EA0122A448611C20F816
:1015E0001120287AE97940EA0122A048A11C20F8BC
:1015F00011209F48007830B3032E24D100200090A2
:101600009A4830F81400000A8DF80300974810F843
:1016100014008DF802009548611C30F81100000A92
:101620008DF80100914810F811008DF800008F48E6
:10163000A11C30F81170DDED000AB0EE600A3846EA
:10164000FFF77CFA00BFBDE8F88310B5884C1C3466
:1016500094F8410101280EDB94F84101401E04EB8F
:101660000010406838B194F84101401E04EB0010AE
:1016700041680020884700F084F810BD70B5054629
:1016800004210A2007F086FC04463CB126461320BC
:10169000B070B560204607F09BFC00BF70BD10B570
:1016A0000446AFF25900FFF7E9FF10BD1CB5044630
:1016B00070480021AFF219032246CDE90010204600
:1016C00007F0F3FE1CBD10B5694C1C3494F84101C1
:1016D00001280EDB94F84101401E04EB0010406825
:1016E00038B194F84101401E04EB0010416800201D
:1016F000884700F046F810BD10B50446AFF2390037
:10170000FFF7BCFF10BDF8B504460D4616465AA0BB
:10171000006800901DF8040032462946FDF7A6FC3B
:10172000F8BD7CB505460E4600242146641C53488E
:10173000455402222146641C4254C6F30722214626
:10174000641C42542146641C465400222146641CF9
:10175000425406222146641C42542146FFF779FE7A
:10176000A21C46490020FFF7CEFF42481830AFF2D6
:10177000770300221146CDE90050962007F095FE30
:101780007CBD70B53A4C1C3494F8410194F840117A
:1017900088420CD194F84101803084F84101D4F89A
:1017A000440118B10020D4F84411884770BD94F862
:1017B000410194F8401188421FDA94F8415194F89D
:1017C0004101401C84F8410104EB0510007810B180
:1017D00001280FD108E004EB0512D16804EB0512D3
:1017E0009068FFF79EFF06E004EB05118868FFF79D
:1017F0005DFF00E000BF00BFD8E700BFD6E770B5CF
:1018000004460D460120FBF708FA1A48183007F085
:1018100007FE2078C13805280DD2DFE800F0030468
:101820000506070000BF00BF00BF00BF29462046D5
:10183000FFF7BDFE00E000BF00BFFFF7A2FF70BDD5
:101840002DE9FC410446002504F1080797F80080C3
:10185000B8F1C10F02DBB8F1C50F11DDBDE8FC81A5
